:100000000C94490E0C94710E0C94710E0C94710E9C
:100010000C94710E0C94710E0C94710E0C94710E64
:100020000C94710E0C94710E0C94710E0C949F1F15
:100030000C94710E0C94710E0C94710E0C94710E44
:100040000C94FD1E0C94710E0C946D1F0C94471FA4
:100050000C94710E0C94710E0C94710E0C94710E24
:100060000C94710E0C94710E05A84CCDB2D44EB9FF
:100070003836A9020C50B9918688083CA6AAAA2A4B
:10008000BE000000803FF4113600102AA00000A03E
:10009000FF0062007F102BB00000B0FF0062009FE5
:1000A000102C7000F410101028F500F41136801197
:1000B0003680102AA00000A0FF00A00000A0FF00D2
:1000C000102BB00000B0FF0062009F102C7000F4F5
:1000D000113640113640102AA00000A0FF00620037
:1000E0007F102BB80100B0FF0062009F102C700041
:1000F000F4113600102AA00000A0FF00A00000A00C
:10010000FF00102BB00000B0FF0062009F102C70A9
:1001100000F4113600102AA00000A0FF0062007F4A
:10012000102BB00000B0FF0062009F102C7000FD8B
:10013000F1F58005F08005F18032F41011800A108D
:10014000131020113A061029113600142A0000005D
:100150007F142B0000009F102CF5000000000023EE
:10016000002600290000000000240027002A0000CB
:100170000000080002010000030407000000000066
:100180000000000102040810204080010204081051
:100190002001020408102000000000250028002B88
:1001A0000004040404040404040202020202020320
:1001B0000303030303E00004030505040606161CFD
:1001C000FEFB12FB1200028504FD20060020C8027F
:1001D0002109422A78C20F4408220A66ECCB8245E4
:1001E00048160023284A26C8CEC4CCC4CCC48C8868
:1001F000CC88CCC4C4C18189C88C88C8C181C59A47
:100200008919911911991199891900241DEAA6C714
:1002100092A0329B83889989A1C20DE90807058DB8
:100220006C460E62CC04150125214A26C8C6CC4175
:1002300088848A898A9111B939B93941B939B9396A
:10024000911515139A1CC44C0026206926C8CE941B
:10025000C90A990939B9B131A22289198909120942
:10026000929B138A9189831803270A63E87B82C4CF
:1002700044040028164532D88ACCC4888CC8121988
:100280006D466664466646240029134432C8828857
:10029000C888C8887EB14262422604002A120869D2
:1002A000DB8E98C8818489C5418C488C0C002B0D4D
:1002B000E728B98E9492831B2911002C0862E877F5
:1002C0000245002D0747A8B9C2032E07422878022D
:1002D000012F14482AC89AAA29A95552ABA4A6A44A
:1002E0005649AD120330134926C80ECD05C5111568
:1002F000FF5591C9C4110900310B4432C88A8A03E1
:1003000012FD3F32174926C80ECD05C51155D1D46F
:10031000B2A96553CBA6C60E0E08331669E6C7C24E
:1003200003B2556362535465747A217340721504A5
:10033000341A4926C8CE989CD8989CD83239119145
:100340001191119183032A394D0035174926C8C2EE
:10035000033BED4E0E2266AAE4D45115994C1C9134
:100360000036194926C80ECD0589119DBA93838898
:1003700019232A5645261347240037174A26C8C290
:10038000075112421342737372EBE4B693DB4E0AC9
:1003900000381D4926C80ECD058911155591C4C8D0
:1003A000C4C9C58C11155591C4C8C4110900391BA5
:1003B0004926C80ECD05891115AB22938983903B40
:1003C00039AA228991892312003A0842A978023178
:1003D000013B09626978023145003C0E66EDC89226
:1003E000CCC81221A1ADA4023D0CC8E8C8C2037953
:1003F000888303013E1166EDC84294D4D0229989C6
:100400009119A128003F166926C80ECDC9881195FB
:100410009CD814D53239DD83CAC9004034D1E636C0
:1004200097E5C198850D1DC9E4C48C89C9498DC85B
:100430000C8D1A1A35346A68D4D0A8A151433341BF
:10044000617240314341330F306E7D40782002416C
:100450001D492AC8CED82A564545123213321332C6
:10046000222322231707113312428D06421C4926EC
:10047000C882CD41848C5115A3038A83089909A1B0
:100480002A8E6A260E226C0043144926C84ACD05DE
:10049000C511159DFEAAC864E288040044114926CE
:1004A000C8C2C941848C15FF8F0E284E0045114AE1
:1004B00026C8C207817A787323A887070706460FE4
:1004C0004A26C8C207817A787323A81F02471449B5
:1004D00026C84ACD0589119D6E5C71556441711025
:1004E00063480E4926C882147F75F0208ABF1249DE
:1004F00008422A78C21F044A0F4926C89EFEEFA868
:100500008A4C268E48004B214926C882509B09916F
:100510001191118999A2222AAA22092189199111DE
:1005200019119909A1A2014C0C4A26C882A0FE7F8C
:100530007870604D1E4926C8C2508DCDC9C541C4D2
:10054000C141C441C404C50489044908490815AF20
:10055000044E174926C8C250231B372714221413F0
:1005600024122412341E75254F134926C80ECD05BA
:10057000C51115FF5591C9C411090050144926C869
:1005800082CD41848C51154707142772FA1D005102
:10059000134926C80ECD05C51115FF5591C9C44193
:1005A0008C01521D4926C882CD41848C51154707C4
:1005B00014272223322232133213421242AD045343
:1005C000174926C80ECDC9C41155D91C19DD76545A
:1005D000452613472400540D4926B8C2032239FD8D
:1005E000FF0600550F4926C88214FF5F15994C1C61
:1005F000910056204926C88254519184CC84CC84E1
:100600008CC8888C888CC48CC48C845015576373B8
:1006100032005716482AC88210BF082189A090A02E
:100620009038F8030A13930158204926C8C29084D1
:100630009084CCC4888C888CC48C111547361233B6
:100640002222236A26848A04591C4926C8C250CD16
:1006500084CC848CC8C48C845023B23139B131B17C
:10066000656263005A194926B8C203B231B131B18B
:10067000313931393139313931B98303025B0B46B4
:100680002EC8C223FD3F3A285C17492AC882DC9C49
:10069000BA39B9B139B9B139B939B9B139B9015D75
:1006A0000C452EC8C2C18CFEDF1C145E0A66ECCC61
:1006B00006C54188005F084CA0C7C20703600A84D2
:1006C000B0CC828C888C00611DCB25D80E99D1C806
:1006D0008C908C90A4D0CD41088D889488940893F8
:1006E0008391120162176926C8829C5E901C445057
:1006F0001C51F15591C541850409006313C925C8F2
:100700000ECD058911159DAE8A2C288E48006415E2
:100710006926C89EDE581C448C1851F1559105C5B8
:10072000418C016516C925C80ECDC9C41115D5C1A6
:100730008338B9A1081647240066156926C81291A6
:100740008D8D888C9C460711074172FA2300671F24
:1007500069E6C68EC541C4C411155591C404C58946
:100760008DDCD8C5411155CDC4418805006811699B
:1007700026C8829C5E901C44901851F15F09690D57
:10078000642A788288B888FE9325026A1107EFD61A
:10079000967A5829FDBFA2A99830A1006B1A692644
:1007A000C8829C1EB59990111119512331E3E6645A
:1007B00044648550D1006C0C652678828CFE7F33B2
:1007C00043326D24D0253883040DC9C14104858985
:1007D000D110951495149514951495149514951499
:1007E0009514951495026E10C925C88204C9410458
:1007F000891115FF95006F12C925C80ECDC9881142
:10080000155F1559501C9100701869E6C68204C91D
:1008100041048911155F15991C504890C8E90E00D4
:10082000711669E6C68EC541C48811155F15498CDD
:100830004C1CC4D8E901720DC7259882C4C1132A83
:10084000FD2B007315C825B80A8DC5880D51595167
:10085000591191C5840D0900741066268886906E22
:100860000E2A84F4474334037510C925C88214FF47
:100870005591C4C8C4418C01761ECA25C8C2D08413
:10088000D084908890C88CC81A9119112111A1099F
:1008900021AB2A321A00772ED12538C3D00AA115F0
:1008A000424322423422233522232533221222338B
:1008B0002212224222121342161342265534553474
:1008C000643434007819C929C882509188C888A234
:1008D00022B25554352232221342124203791F6A42
:1008E000E6C6C6CC88CC888C361333134312431229
:1008F000521252CDC8E6369298B1A2027A11CA2598
:10090000C8C203BBB17563DB8DAD3B38307B15A727
:10091000AEC7D20C09CD90948E6686A6A6F46A8ADC
:1009200068007C08E2B6C7C23F207D13A7AEC7822D
:10093000D42ABDDA8664484A47333443007E0C6AC1
:1009400064C94690C881C881007F060020C8028023
:10095000060020C80281060020C80282060020C8C6
:100960000283060020C80284060020C80285060013
:1009700020C80286060020C80287060020C8028818
:10098000060020C80289060020C8028A060020C886
:10099000028B060020C8028C060020C8028D0600CB
:1009A00020C8028E060020C8028F060020C80290D0
:1009B000060020C80291060020C80292060020C846
:1009C0000293060020C80294060020C80295060083
:1009D00020C80296060020C80297060020C8029888
:1009E000060020C80299060020C8029A060020C806
:1009F000029B060020C8029C060020C8029D06003B
:100A000020C8029E060020C8029F060020C802A03F
:100A1000060020C802A1060020C802A2060020C8C5
:100A200002A3166926B80E91C98A1909399D9DDC61
:100A3000C8E96CECE08000A4060020C802A506000E
:100A400020C802A6060020C802A727D32568D7D849
:100A50009CD8DCD81C51558DD1C4C8C4CC888DC855
:100A60004CD11195119511D5C94589C91551090068
:100A7000A8060020C802A92F7126385BE9815C8591
:100A8000D1DCCCE4884C8DC949C91A12211942190C
:100A900042191221990A8A113713233423744325EA
:100AA0006607A26500AA060020C802AB152925B971
:100AB0008E4CC8C41622236A466446664484620289
:100AC000AC060020C802AD060020C802AE06002019
:100AD000C802AF060020C802B00C84687C86448837
:100AE00048840400B1060020C802B2060020C802F3
:100AF000B3060020C802B4060020C802B51149267A
:100B0000C78214FF5591C9C1C5419C7600B6060045
:100B100020C802B7060020C802B8060020C802B9E3
:100B2000060020C802BA060020C802BB182925B951
:100B3000428CCCC4CCC4CC888C88C884C984C848B6
:100B40004C1000BC060020C802BD060020C802BE32
:100B5000060020C802BF060020C802C023E92AC838
:100B60008AA0C27800B9B129AE8A246426642664BA
:100B7000446444462E0E2266248424848A06C122BC
:100B8000E92AC8D298F6207263535C1549C84CC84C
:100B90004CC888C8888C5C1C44CC48084908150D92
:100BA000C225E92AC88E1895848C4CB8DCD8145715
:100BB0004512321332133222322223170711331215
:100BC0004212424503C3060020C802C421C926C8F8
:100BD0008A8490843CE0D8322AA246124212331210
:100BE00023232223220F22648C8AA804C506002016
:100BF000C802C629501AC8DAC1D8C1186DAD84AC74
:100C000084E884A888E4C8D1C8918CE08CE041E0F5
:100C100041DC909C94D8D401D54100C7060020C87F
:100C200002C816EA26C88EE0A0A4F4C183403DBCE9
:100C3000B911D4C3830303C916EA26C8969CA09CA5
:100C40003CC007817A787323A887070706CA18EA89
:100C500026C8921C9584908CF0C183403DBCB9118C
:100C6000D4C3830303CB17CA26C88A8494843CE088
:100C7000C183403DBCB911D4C3830303CC0DE5321D
:100C8000C882906632FAFF2700CD0DE532C8CA88C7
:100C90009632FAFF2700CE10E72EC88A108D841AEC
:100CA0004929FDFF1B00CF0EC52EC8820485B08CDC
:100CB000FEFF0500D0060020C802D1060020C802B1
:100CC000D217E926C88EDC9CA038CD05C51115FFCA
:100CD0005591C9C4110900D318E926C896989C9863
:100CE0003C04CD05C51115FF5591C9C4110900D4A7
:100CF00018E926C8921891848C6A9A0B8A232AFED6
:100D0000AB229389231200D5134926C80ECD05C501
:100D10001115FF5591C9C4110900D618C926C88AF2
:100D20008490843C20CD05C51115FF5591C9C4118F
:100D30000900D7060020C802D8060020C802D9132F
:100D4000E926C88EDC9CA0AC14FF5F15994C1C9161
:100D500000DA13E926C896989C98B414FF5F159999
:100D60004C1C9100DB14E926C8921891848C5229FE
:100D7000FEBF2A3299382201DC14C926C88A849021
:100D8000843C9414FF5F15994C1C9100DD060020F3
:100D9000C802DE060020C802DF1C6926C80A91C905
:100DA0008A190921099909110A110A192BFEC68409
:100DB00042640400E0226B26D88EA8A4A83C0C99BB
:100DC000D1C88C908C90A4D0CD41088D8894889403
:100DD000089383911201E1216B26D896A04A7928C5
:100DE00032A3911921192149A19B83101A112911AC
:100DF00029112607232502E2246B26D8CE1C9D84C8
:100E0000948C3C0899D1C88C908C90A4D0CD41088A
:100E10008D88948894089383911201E3060020C87A
:100E200002E4224B26D88A8498843C3899D1C88C15
:100E3000908C90A4D0CD41088D8894889408938399
:100E4000911201E5060020C802E624CE25180B9B6E
:100E5000838A11129B193121312191838A830319CD
:100E600031213121A1928A89831A121200E71629B1
:100E700066C70ECD05C511159DAE8A2426288EC8DD
:100E8000A4D800E81A6926C88EA09CA038CD05C554
:100E90001115D5C18338B9A10816472400E91A698C
:100EA00026C8D298BA78109A9389232AAA83077100
:100EB0007243112C8E4800EA1B6926C8CE18918413
:100EC0008C6A9A9389232AAA8307717243112C8E04
:100ED0004800EB1B4926C88A8490843C20CDC9C4B5
:100EE0001115D5C18338B9A10816472400EC0E6549
:100EF0002678C28C903219FD376B04ED0F642A7886
:100F00008A8488849888FE932502EE11672278CA25
:100F10000C890A194929FD57AB2400EF0F65267883
:100F20008204853C848CFE9B3502F0060020C802BA
:100F3000F1060020C802F217E926C8CA9CA09C3C12
:100F40006634272346547C556441714402F3166984
:100F500026C89698BA78109A9311232ABE2AB2A06E
:100F6000382201F4176926C8CE1891848C6A9A93A6
:100F700011232ABE2AB2A0382201F512C925C80EB3
:100F8000CDC98811155F1559501C9100F6174926D7
:100F9000C88A8490843C20CDC98811155F155950AA
:100FA0001C9100F70F47A9B88A943CC8C13D8494AE
:100FB0000C00F81D6926C88EC541C4C44D8D272775
:100FC0001224121422142227366E2426289E00F999
:100FD000136926C88EA09CA0AC14FF5591C9C441CA
:100FE0008C01FA126926C8D298BA7029FEAB2293F6
:100FF00089831803FB146926C8CE1891848C522962
:10100000FEAB229389831803FC144926C88A849076
:10101000843C9414FF5591C9C4418C01FD06002005
:10102000C802FE060020C802FF060020C802000019
:101030005F0103030303010104050600FF05FF052B
:1010400000011A02602006747C6C002108728A4834
:101050005A0C002207748C481C03230C769EA45261
:1010600024548AC42100240A768E4A5A2D12A903D8
:101070002509768E5830B73800260B760E52522549
:10108000149AC4012707728A3810002808739BA499
:10109000B420002908738B5828250A2A0974CC48E3
:1010A00028250E022B0874DCD0280E032C07727A38
:1010B000480A002D08757D181D09002E07727A4810
:1010C0000C002F0776CEBC0301300C768E4A2C1212
:1010D0008BC42275003107728A486E003209768E01
:1010E0006AA412AD033309768E6AA41AA903340ADE
:1010F000768E582416A9A6033509768E4AB41AA905
:1011000003360A768E4AB4128BD4013707768E6A7C
:10111000EE00380B768E4A2C528945EA00390A7661
:101120008E4A2C528DD4013A0772AA680C003B07F4
:1011300072AA5824063C0774AC8CA9003D07755D63
:10114000321D083E08748C60523A003F0A768E6A5F
:101150006C0E8A8300400A768E4A2E93681D0041E9
:101160000C768E4A2C528945627100420C760E52E2
:101170002C428A45E810004308768E4A34B50E4466
:101180000D760E522C128BC4227408004509768EFF
:101190004AB412AD03460A768E4AB4128D03014753
:1011A0000B768E4A34328945EA00480D768E5824F3
:1011B00016A9C422B138004908768E5A34AD0E4AB9
:1011C00009761E62349454074B0D768E58242212F1
:1011D0004644B138004C08768E68D63A004D087601
:1011E0008E4AFEEF004E0D768E4A2C128BC422B131
:1011F00038004F0C768E4A2C128BC4227500500B8F
:10120000768E4A2C5289C68100510C768E4A2C1259
:101210008B84247500520B768E4A2C520965870008
:101220005309768E4AB41AA9035409768E5A343B70
:101230000800550D768E582416894562913A00565D
:101240000E768E582416898522C1380800570976F3
:101250008E48FE973A00580C768E5828124C09C5D5
:10126000E200590D768E5824168A04A37110005A94
:1012700009768E6AA412AD035B08730B49284908EE
:101280005C07768E70EE005D08730B511621005ED0
:1012900008749C50248E065F07767E9C2A006007A7
:1012A000728A3810006108755D62841900620B75DE
:1012B0008D2025140945C8006308755D4A3048062D
:1012C000640B75BD0825140945C8006508755D0ADD
:1012D0002548066609741C5168140B03670B755D7D
:1012E0004A28128A102300680C758D2025140945A0
:1012F000426100690772AA4836006A0873CB50162B
:1013000009006B0C758D60244409454261006C072F
:10131000728A486E006D0A76EE4A6E91581C006E15
:101320000B755D4A28128A84C2006F0A755D4A28CF
:10133000128A9001700B755D4A28128A50820071E2
:101340000B755D4A28128AD042007208755D4A30DA
:101350001D04730875EDE0304206740976AE582D11
:101360009A0E02750B75DD5024140945C800760BE2
:1013700075DD5024140985C600770A76EE582416C8
:10138000C95207780975DD5048264A06790C75DD83
:1013900050241409458811007A09757D4068142489
:1013A000037B0874AC2459300A7C07728A486E00AB
:1013B0007D08748C604C940E7E09767E58A412478A
:1013C000030000BF00030304040204050B0DFFFE2D
:1013D00008FE08FE016402CF200500E60421088211
:1013E00023C5411213220833774544250023107783
:1013F000A1552418899922215324188901240FA565
:101400009E556C92425B8A485266210025128722C3
:101410008E4C220949A2E168441489CC240026108C
:101420008722CE4C2292C866129344329A0827062D
:1014300031F7C400280BA31A554412D129240A29D4
:101440000DA31A4548149268894842002A0733368A
:101450004524072B0A56A6955064128A002C074291
:10146000DA0445022D06146E05012E0622E204015F
:101470002F0C84225D522C140BC56200300B85A208
:10148000CD44C217C90400310783A34D451F320A5A
:1014900085A2CD444D495B01330D85A2CD444D2439
:1014A0009451241300340E86A26550368A484212A5
:1014B0009B5002350C85A2C54D461C5124130036A5
:1014C0000D85A2CD4442A34858241300370B85A2B2
:1014D000454D4926922901380E85A2CD4442914CB2
:1014E000242C920900390D85A2CD44C222A1512499
:1014F00013003A0762E20491003B0882DA04912269
:10150000013C08546695444D013D0735AA45B50098
:101510003E095466854C4509003F0C85A2CD444DDB
:10152000A42687880040179ADE5E4D1A0A4922A237
:1015300024492C2409A58424B238AC06410F872203
:10154000D6702611494412C9414613420C86E24521
:101550004544BA88982E00430E87221649449C2A97
:101560004644220A00440B86E20549A2C48B840447
:10157000450985A2C54D76532B460A85A2C54D4621
:10158000916903470E87221649449C8A6A12916822
:1015900012480A86E28588E930E224490782E2C4DB
:1015A00083004A0A85A29DDE289209004B0F87E23C
:1015B0008548A2441BD224221599004C0885A28597
:1015C0004CDF0A4D1089A286B466BB5852281352CC
:1015D0008814124E0E872286AC54A2442811529BC6
:1015E000004F0C8722D64CA2C64DA23602500B8665
:1015F000E24545C474112A02510D971ED64CA2C66D
:1016000025A28D0E08520B86E24545C4741131099E
:10161000530C86E20D45546423492800540986E2A0
:101620008549A84F00550A86E285889F24140056F4
:101630000F8722868C2651928824B2E134065713F4
:101640008AE28648441291543449940E31915024D0
:1016500002580E8722868C26511BCE246A340159EB
:101660000D88628690281169A38AD5005A0A86E2FD
:101670008551A63653345B08A31A4545BF0C5C0C54
:101680008422452C180BC682B1005D08A31AC544FC
:10169000BF145E0844728DA4240A5F06169A850161
:1016A000600722FE442800610B66A2CD2824A2E830
:1016B0002411620B85A2854C469170B100630964C8
:1016C000624D65A41219640A85A29D8A858B8400E7
:1016D000650C65A2CD44729049241300660A8521E9
:1016E000D5444492E904670C859A8D64C2454293BF
:1016F0004C00680A85A2854C4691F022690782E277
:1017000084E8506A0AA3D98C50A2170A006B0D8690
:10171000A2855045429A91244A026C0782E2C48312
:10172000006D0E68624644178A8422A148280A6E1A
:101730000965A245448517016F0A65A2CD44C245DB
:101740003201700B859A4544858B452603710A85C5
:101750009A8D64C24542537209642245A422D20480
:10176000730B65A2CD446548914C00740A84218DA9
:101770004842116913750965A28584179500760B97
:1017800065A285844592340B017710672286244236
:101790008950229A2422890400780C66E285484206
:1017A0009351442401790C859A85848B8424138970
:1017B000007A0965A2454DA4AD007B0BA45A95445F
:1017C000A4221369137C07A1DBC461007D0CA45A19
:1017D000854CA426116911017E0725AE8D1600A047
:1017E0000500E604A108821B852C7210A20F859EBD
:1017F0005D68229984222189641403A30D85A2D5F2
:1018000044121191642A1301A40B66A6453042CA02
:1018100089120CA50E86E245503892842226914901
:1018200004A607A1DB048900A70FA59ACD44449B19
:1018300084489119493201A80713FE442400A912D3
:1018400088A3162D1809A9842292A0689218230152
:10185000AA08536FC548121BAB0936E68D84229245
:1018600008AC0735EB453101AD06146E0501AE1429
:1018700088A3162D18895024A18864240945126371
:101880002400AF0613FEC400B0073336CD0A00B102
:101890000B76A295506412CA2106B20843F2CC24FA
:1018A0006500B30843F2C4243601B40722FE8C0459
:1018B00000B50A859A858497CA4C06B616A69ACDB5
:1018C000211299442621492C128BC422B1482C1292
:1018D00001B70612EE8400B80622DACC00B907423E
:1018E000F2CC2401BA07536F058536BB0A36E6856C
:1018F0004424A14800BC1388624E2C244B0A86C2A3
:10190000A1584816A1042300BD1187624E2C220B5A
:10191000A585A211512429D300BE138862C628963A
:10192000188989C2A1584816A1042300BF0D859AC1
:10193000951C2213A949241300C013B722561C106A
:10194000870E6712914424911C643401C112B7229E
:1019500066340E1DCE242289482239C86802C2127C
:10196000B7225E341207AE49441291447290D104FA
:10197000C313B7225E24168903D72422894822394B
:10198000C86802C411A72256240E5C9388242289B9
:10199000E420A309C513B7225E34128D0E6712919D
:1019A0004424911C643401C60F89A2D68928114AA7
:1019B0002A6A36914C54C70FA71A1649449C2A46E6
:1019C0004422625406C80CB5A24D340EB8C96E6AE2
:1019D00005C90BB5A25D3AE026BBA915CA0CB5A294
:1019E000552C12BEC96E6A05CB0AA5A24DF24D76E2
:1019F000532BCC09B2E24428743808CD08B2E28CEB
:101A0000EC7010CE08B3E14C46897ECF0AA4E144C5
:101A1000282AD22F00D01087E10D4D22125994248C
:101A20002289120900D112B7225E2416898364A587
:101A30001225428990DA04D210B7225E1C1007CE1C
:101A4000246ADC246A2300D30FB72266340E9D4932
:101A5000D4B849D44600D410B7225E341207CE243D
:101A60006ADC246A2300D511B7225E241689036735
:101A700012356E12B51100D60FA72256240E9C49BE
:101A8000D4B849D44600D70B56A685484293514452
:101A900002D8118722D624A2A912A1444A1295C8BD
:101AA0000800D90CB6E255380E11F1938402DA0C15
:101AB000B6E2653A44C44F120A00DB0DB6E2553077
:101AC000128788F8494201DC0CA6E24D280E10F17D
:101AD000938402DD10B8626E380E141225226D5404
:101AE000B11A00DE0C86E285B02262BA088500DFFA
:101AF0000C85A2CD44B412116D8900E00E96A2555A
:101B0000380E1A8544149D2402E10E96A25D300E13
:101B10001B8544149D2402E20F96A2553012078DB6
:101B200042228A4E1201E31096A25524148983465C
:101B3000211145278900E40D86A24D3A68141251FF
:101B4000749208E50F96A25530120C8E42228A4EEE
:101B50001201E60F68628E2524911C2432899609B1
:101B600000E70C845A4D65A41219852400E80E95EF
:101B7000A24D340E99480E32896402E90E95A25D99
:101B80003A642239C824920900EA0F95A2552C1212
:101B9000074C240799443201EB0E85A24D3A60228E
:101BA00039C824920900EC0892E244287428ED0711
:101BB00092E28CEC50EE0993E24C36895E00EF0A1B
:101BC00083E2442426D10B00F00E95A24D922812F8
:101BD0009B48B8482600F10B95A24DEE80880A2F4D
:101BE00002F20D95A24D340E9948B8482600F30C28
:101BF00095A25D3A6422E1229900F40E95A2552C3B
:101C000012074C245C241300F50C95A24DEE90892C
:101C1000848B6402F60C85A24D3A6022E122990081
:101C2000F70A56A6951C62878800F80F67A1D5248D
:101C3000A25492882492C80800F90B95A24D340E44
:101C400090F0A212FA0B95A25D3A40C28B4A00FBBB
:101C50000B95A2552C1296F0A212FC0A85A24DB249
:101C600084179500FD0EB59A5D3A40C245429289AF
:101C70004400FE0EA59A854C469190562C321900D0
:101C8000FF0DA59A4DB2848B8424138900000000B7
:101C9000A02011241FBECFEFD8E0DEBFCDBF11E0E2
:101CA000A0E0B1E0E6E4F6E502C005900D92AA37A7
:101CB000B107D9F724E0AAE7B1E001C01D92A83E20
:101CC000B207E1F71EE0C9E4DEE004C02197FE019F
:101CD0000E94DD27C834D107C9F70E9466210C9401
:101CE000212B0C940000E0911404F09115048091D4
:101CF0000F0480FF0CC050E040E06BE070E08FE02C
:101D000094E0099580910F048E7F80930F04E091F9
:101D10001404F091150450E040E06AE070E08FE0B8
:101D200094E00995009729F020910F0421602093F9
:101D30000F04089581EA9EE09093760480937504E1
:101D4000089590E080E0089581E090E00895CF92BA
:101D5000DF92EF92FF92DC01A03282E0B807D4F567
:101D6000A53BB10514F0A4EBB0E04091E20428E8F3
:101D700030E0241B310947FD3395220F331F220F1A
:101D8000331F6901330FEE08FF084091E30428E593
:101D900032E0241B310947FD3395220F331F220FF8
:101DA000331F032E000C440B550B2C193D094E0913
:101DB0005F09B7FF02C0B0E0A0E00E944D2724EB0E
:101DC00030E040E050E00E942327C20ED31EE41E04
:101DD000F51ED601E091E104EC3080F52091E2049B
:101DE00088E890E0821B910927FD9395880F991F41
:101DF000880F991FA817B90784F02091E30488E59C
:101E000092E0821B910927FD9395880F991F880FF7
:101E1000991FA817B9070CF4CD010297880F991FD5
:101E20004FB7F8942E2F30E0F901EE0FFF1FE20FAD
:101E3000F31FEA51FC4F928381834FBFFF90EF90D5
:101E4000DF90CF9008955F926F927F928F929F92D2
:101E5000AF92BF92CF92DF92EF92FF920F931F93B8
:101E6000CF93DF93EC017B018A018091350480934D
:101E70002604809136048093270480913704809350
:101E800028045E01A41AB50A4C175D071CF05A011C
:101E9000AC1ABD0A2E153F0564F46701C21AD30AB5
:101EA000AC14BD044CF10C171D070CF45DC0512C93
:101EB00018C06901CE18DF08AC14BD040CF075C061
:101EC0009A2D8B2D5601C92ED82E902F812F890146
:101ED000292F382F9C2F8D2FE701E92EF82E55241E
:101EE0005394450195948794E216F3060CF446C08A
:101EF00066246A94762C45C09A2D8B2D5601C92EE6
:101F0000D82E9E2D8F2D7801092F182F9C2F8D2FC5
:101F1000E901292F382FE3CF51101DC0D09323049E
:101F2000C0932204F0922504E0922404E09114046A
:101F3000F091150450E040E064E170E08FE094E03F
:101F400009958C189D0897FE04C0E60CF71C8A0CB6
:101F50009B1C219617C0F0922304E0922204D09398
:101F60002504C0932404E2CF450195948794902FD3
:101F7000812F8E01C92FD82F7901512C66246394AB
:101F8000712CDD240C171D073CF6DF91CF911F91BA
:101F90000F91FF90EF90DF90CF90BF90AF909F9008
:101FA0008F907F906F905F9008950C171D070CF035
:101FB0007ECF450195948794902F812F8E01C92F54
:101FC000D82F7901512C94CFEBE0F4E022A5238F98
:101FD00023A5248F24A5258F908F878B728F618FE7
:101FE0000184F285E02D50E040E064E170E08FE094
:101FF00094E00994CF92DF92EF92FF920F93CF93E8
:10200000DF936B017A01B9016C197D09E901C81BE5
:10201000D90B013089F4840F951F0E94E40FBE0193
:10202000C6018E0D9F1DDF91CF910F91FF90EF9014
:10203000DF90CF900C94E40F9A01281B390BC90153
:102040000E94E40FBE01C7018C199D09ECCF4F928D
:102050005F926F927F928F929F92AF92BF92CF9238
:10206000DF92EF92FF920F931F93CF93DF932C0198
:102070004B01EA01122F81E090E07C01E41AF50A9D
:10208000CC24DD24C41AD50ACC0CDD1C022F9B0104
:10209000A201BE0190E080E00E94FA0F66246394E2
:1020A000712CB12CA12CF7FC06C0219782E0C80E40
:1020B000D11CEC0CFD1C8FEFA81AB80A82E0680E48
:1020C000711CE60CF71C012F9401A201BE01C50191
:1020D0000E94FA0FAC16BD0634F3DF91CF911F9129
:1020E0000F91FF90EF90DF90CF90BF90AF909F90B7
:1020F0008F907F906F905F904F90089590E0FC01DB
:10210000E159FE4F2491FC01ED57FE4F3491FC0143
:10211000EF55FE4FE491EE23C9F0222339F023302E
:1021200001F1A8F4213019F1223029F1F0E0EE0F8D
:10213000FF1FE956FE4FA591B4918FB7F894EC912B
:10214000611126C030953E233C938FBF0895273000
:10215000A9F02830C9F0243049F7809180008F7DA4
:1021600003C0809180008F7780938000DFCF84B59B
:102170008F7784BDDBCF84B58F7DFBCF8091B0009E
:102180008F778093B000D2CF8091B0008F7DF9CF50
:102190003E2BDACFCF93DF9390E0FC01ED57FE4F5B
:1021A00024918F559E4FFC0184918823D1F090E0BB
:1021B000880F991FFC01EB59FE4FA591B491FC01CA
:1021C000E956FE4FC591D49161110EC09FB7F894A6
:1021D0008C91E22FE0958E238C932881E223E88373
:1021E0009FBFDF91CF9108958FB7F894EC91E22BC8
:1021F000EC938FBFF6CF3FB7F89480914503909151
:102200004603A0914703B091480326B5A89B05C09B
:102210002F3F19F00196A11DB11D3FBFBA2FA92F65
:10222000982F8827BC01CD01620F711D811D911D62
:1022300042E0660F771F881F991F4A95D1F70895CE
:102240008F929F92AF92BF92CF92DF92EF92FF92C6
:102250004B015C010E94FB106B017C010E94FB1092
:102260006C197D098E099F09683E734081059105AF
:10227000A8F321E0821A9108A108B10888EEC80EDF
:1022800083E0D81EE11CF11C81149104A104B10467
:1022900029F7FF90EF90DF90CF90BF90AF909F9085
:1022A0008F900895AF92BF92CF92DF92EF92FF92FC
:1022B0000F931F93CF93DF936C017B018B01040F6E
:1022C000151FEB015E01AE18BF08C017D10759F00A
:1022D0006991D601ED91FC910190F081E02DC6014C
:1022E0000995892B79F7C501DF91CF911F910F9146
:1022F000FF90EF90DF90CF90BF90AF900895FC01DA
:10230000538D448D252F30E0842F90E0821B930B5A
:10231000541710F0CF96089501970895FC01918D00
:10232000828D981761F0A28DAE0FBF2FB11D5D9603
:102330008C91928D9F5F9F73928F90E008958FEFA5
:102340009FEF0895FC01918D828D981731F0828D59
:10235000E80FF11D858D90E008958FEF9FEF0895B0
:10236000FC01918D228D892F90E0805C9F4F821B14
:1023700091098F739927089589E493E00E94B01121
:1023800021E0892B09F420E0822F089580E090E07D
:10239000892B29F00E94BC1181110C940000089532
:1023A000FC01A48DA80FB92FB11DA35ABF4F2C91CA
:1023B000848D90E001968F739927848FA689B789C1
:1023C0002C93A089B1898C91837080648C93938DB8
:1023D000848D981306C00288F389E02D80818F7D5B
:1023E00080830895EF92FF920F931F93CF93DF9313
:1023F000EC0181E0888F9B8D8C8D98131AC0E88941
:10240000F989808185FF15C09FB7F894EE89FF890F
:102410006083E889F98980818370806480839FBFAD
:1024200081E090E0DF91CF911F910F91FF90EF90AD
:102430000895F62E0B8D10E00F5F1F4F0F731127BD
:10244000E02E8C8D8E110CC00FB607FCFACFE889F8
:10245000F989808185FFF5CFCE010E94D011F1CF9F
:10246000EB8DEC0FFD2FF11DE35AFF4FF0829FB76C
:10247000F8940B8FEA89FB8980818062CFCFCF935C
:10248000DF93EC01888D8823B9F0AA89BB89E8899C
:10249000F9898C9185FD03C0808186FD0DC00FB642
:1024A00007FCF7CF8C9185FFF2CF808185FFEDCFC0
:1024B000CE010E94D011E9CFDF91CF910895EF9224
:1024C000FF920F931F93CF93DF937C01EA018A0160
:1024D000060F171FC017D10739F4DF91CF911F9155
:1024E0000F91FF90EF900895FE01449150E0D701C5
:1024F0005196ED91FC9130E020E060E170E0C70181
:1025000009952196E7CFAB01DC015196ED91FC9145
:1025100030E020E06CE070E009940F931F93CF93BC
:10252000DF938C01EB01209729F4DF91CF911F916C
:102530000F91089568EE73E0C8010E9483122197FD
:10254000F2CFEF92FF920F931F93CF93C42F7C0192
:1025500036ECE30EF11CD7013C9134238C01095376
:102560001F4F611122C0332329F0F8013081342339
:10257000341315C0622F70E0DC015196ED91FC918F
:1025800030E020E050E040E009959C2F9095F80164
:10259000808189238083D7018C91C82BCC93CF91E4
:1025A0001F910F91FF90EF900895332321F0F801D0
:1025B00030813423A1F7622F70E0DC015196ED9158
:1025C000FC9130E020E041E050E00995F801808185
:1025D0008C2BE0CF2FE041E00C94A1127F928F92E0
:1025E0009F92AF92BF92CF92DF92EF92FF920F93A2
:1025F0001F93CF93DF938C01EB014C0188EC880E85
:10260000911CFE016491E62EE2942FE0E222F62F67
:10261000FF707F2EEFEFEE0DEF3008F0D6C0F0E048
:10262000EC5EFC4E0C94DD27231323132313E513D8
:10263000E5134D136213791388139613BA13E51338
:10264000E513E513CC135E018FEFA81AB80AD40185
:102650006C9166956170C8010E94EA12F12CA50187
:10266000B701C8010E945F12C72CD12C772069F0F6
:10267000AE0CBF1CF40160816170C8010E94EA12B7
:10268000A501B601C8010E945F12FFEFEF1AFF0A11
:10269000CE0CDF1CCC0DDD1DB4CFD4016C9161706C
:1026A000C8010E94EA12AE014F5F5F4FE72CF12C88
:1026B000B701C8010E945F12BFEFEB1AFB0ACE0DF3
:1026C000DF1D9FCFF4016081669560956170C80140
:1026D0000E94EA12E72CF12C772039F0AE014F5F0F
:1026E0005F4FB701C8010E945F12FFEFEF1AFF0AA8
:1026F000E6CFFE0131966491E72DF0E0FE2FEE2744
:102700006E0F7F2F711DC8010E948D12229679CF06
:10271000FE0131966491E72DF0E0FE2FEE276E0F5B
:102720007F2F711DC8010E948312F0CFFE013196E8
:10273000F4903196E4902396D4016C916170C801B5
:102740000E94EA12D8015396ED91FC91549702C071
:10275000F595E7957A94E2F7EF21EE294E2F50E0B8
:102760005196ED91FC9130E020E060E170E0C8010D
:10277000099547CFFE013196F4903196E490239667
:10278000F40160816170C8010E94EA12D801559677
:10279000ED91FC915697DBCF872D869586958130FC
:1027A00061F020F0833069F021962BCF61702DE02D
:1027B00044E0C8010E94A112F7CF61702EE042E010
:1027C000F8CF6370F4016083EFCFDF91CF911F9159
:1027D0000F91FF90EF90DF90CF90BF90AF909F90C0
:1027E0008F907F900895CF93DF93EC01A881B981FA
:1027F000A217B307ACF4EB01E881F9814E175F072C
:102800007CF4A417B5071CF4DC014D935C932E17E0
:102810003F071CF4EB013983288381E090E002C07C
:1028200090E080E0DF91CF910895FC012589368901
:10283000E25AFF4F40815181241B350B37FD0AC0FE
:10284000349681E090E0408151812417350724F0CF
:1028500080E0089580E090E00895FC0123893489A8
:10286000E45AFF4F40815181241B350B37FD0AC0CC
:10287000349681E090E0408151812417350724F09F
:1028800080E0089580E090E008950F931F93CF9328
:10289000DF9300D000D0CDB7DEB78C01FC01178EDE
:1028A000168E848D958D8130910509F484C034F4A1
:1028B000892B09F440C081E090E044C0823091054A
:1028C00009F4AAC00397B9F7C8010E942D14892BF7
:1028D000B9F1F8018589968901969C838B83228DB5
:1028E000338D821B930B9A838983E25AFF4F408179
:1028F0005181349620813181240F351FBE016D5FD7
:102900007F4FCE0101960E94F313892BC9F08B8172
:102910009C8129813A81AC01421B530BF801538FF2
:10292000428F019725893689281B390B378F268FCF
:10293000968B858BC0CFC8010E941514892B59F442
:1029400090E080E00F900F900F900F90DF91CF916B
:102950001F910F910895F801238934893A832983BF
:10296000828D938D820F931F9C838B83E45AFF4F3C
:1029700040815181349620813181240F351FBE0161
:102980006D5F7F4FCE0101960E94F313892BC1F238
:1029900029813A81F80183899489A901481B590B3F
:1029A000578F468F348B238B8B819C81821B930B9B
:1029B000938F828F80CFC8010E942D14892B09F438
:1029C000BFCFF801258936893A832983828D938D7B
:1029D000820F931F9C838B83E25AFF4F408151816A
:1029E000349620813181240F351FBE016D5F7F4FEA
:1029F000CE0101960E94F313892B09F4A1CF2981FE
:102A00003A81F80185899689A901481B590B578F8E
:102A1000468F368B258BC8CFC8010E941514892B91
:102A200009F48ECFF8018389948901969C838B8366
:102A3000228D338D821B930B9A838983E45AFF4F37
:102A400040815181349620813181240F351FBE0190
:102A50006D5F7F4FCE0101960E94F313892B09F41D
:102A60006FCF8B819C8129813A81AC01421B530B32
:102A7000F801538F428F019723893489281B390B22
:102A8000378F268F948B838B16CF0F931F93CF9303
:102A9000DF93DC01EA011996ED91FC911A976631FA
:102AA00071058CF4643171058CF46C30710589F119
:102AB0006F30710509F446C0AE01CD01DF91CF91B1
:102AC0001F910F91099467317105B1F75C968D9153
:102AD0009C915D970196837099275D969C938E9348
:102AE0005C9753962D913C9154971B968D919C9198
:102AF0001C9755964D915C915697841B950B0197A9
:102B000054969C938E93539756963C932E93559739
:102B1000D3CF2E813F81488159810A811B811B9629
:102B20008D919C911C97801B910B821B930B998319
:102B300088835B834A838C819D813D832C839F8323
:102B40008E83BACF8A01EC01AC01455F5F4F6FE025
:102B500070E009958B859C85F801938382838D8530
:102B60009E859183808381E090E0DF91CF911F91DA
:102B70000F910895213069F038F0223079F0840FF8
:102B8000911D47FD9A950895860F911D67FD9A95B1
:102B90000895841B910947FD93950895861B91091B
:102BA00067FD93950895213069F038F0223079F06F
:102BB000861B910967FD93950895840F911D47FD2C
:102BC0009A950895860F911D67FD9A950895841B27
:102BD000910947FD93950895DC011A964C911A9737
:102BE000ED91FC911197249130E0042E02C03595AF
:102BF00027950A94E2F7842F860F883068F0319683
:102C00001196FC93EE93E49198E0941B01C0EE0FB3
:102C10009A95EAF72E2B88501A968C938FEF9FEF98
:102C200001C0880F6A95EAF7809582230895FC0118
:102C3000E60FF11D849190E0982F88273196E4915A
:102C40008E0F911D0895CF93DF93209173043091DF
:102C500074042817390709F488C0EC0190937404B0
:102C600080937304FC018491809384043196E491F1
:102C7000E0938504FE013296E491E0938604FE0120
:102C80003396E491E0938704FE013496E491E09357
:102C90008804FE013596E491E0938904FE0136969E
:102CA000E491E0938A04FE013796E491E0938B046B
:102CB000FE013896E491E0938C04FE013996E4918C
:102CC000E0938D04FE013A96E491E0938E04FE01B8
:102CD0003B96E491E0938F04FE013C96E491E093EF
:102CE0009004FE013D96E491E0939104FE013E962E
:102CF000E491E0939204FE013F96E491E093930403
:102D0000FE017096E491E093940461E1CE010E948B
:102D10001716909396048093950463E1CE010E9468
:102D20001716909398048093970480917304909160
:102D30007404892BD1F08091910480939F04409179
:102D400092044093A00490919E04992371F09130D5
:102D500079F490919304891714F490939F048091CF
:102D60009404841714F48093A004DF91CF91089504
:102D700030918E0420919004082E000C990B622F44
:102D8000022E000C770B630F711D37FD7A958617A5
:102D900097071CF4320F30939F04241734F72093C5
:102DA000A004E3CFAC014D5E5F4FDC011596ED91C1
:102DB000FC9165E170E00994EBE0F4E022A5238F3B
:102DC00023A5248F24A5258F908F878B728F618FE9
:102DD000578F468F81E090E091A380A38FE094E02D
:102DE0000C94D2162F923F924F925F926F927F92E5
:102DF0008F929F92AF92BF92CF92DF92EF92FF920B
:102E00000F931F93CF93DF9300D000D0CDB7DEB7E1
:102E10004C015B015C834B8389016B018FEFC81A06
:102E2000D80A3901661A770A1A01280C391CA6013A
:102E3000B301C1010E94DC1674019FEFE91AF90A7F
:102E40002801481859088B819C818A0D9B1D9A8303
:102E50008983A701B2010E94DC168B819C818819AD
:102E600099094C01A601B3010E94DC168B819C815B
:102E70008A199B099C838B83A701B2010E94DC16EF
:102E8000A601B801C1010E94DC16A701B801898121
:102E90009A810E94DC16A601B801C4010E94DC16CA
:102EA000A701B8018B819C810F900F900F900F901C
:102EB000DF91CF911F910F91FF90EF90DF90CF9016
:102EC000BF90AF909F908F907F906F905F904F904A
:102ED0003F902F900C94DC166F927F928F929F926E
:102EE000AF92BF92CF92DF92EF92FF920F931F9318
:102EF000CF93DF933C014B01EA0101E010E0041B9A
:102F0000150BEE24FF24E41AF50AEE0CFF1C9B01BE
:102F1000A301BE0190E080E00E94F216AA24A394CF
:102F2000B12CD12CC12C17FD06C0219782E0E80EF0
:102F3000F11C0E0D1F1D8FEFC81AD80A82E0A80ED3
:102F4000B11C0A0D1B1D9401A301BE01C6010E9404
:102F5000F216CC16DD063CF3DF91CF911F910F9155
:102F6000FF90EF90DF90CF90BF90AF909F908F90A9
:102F70007F906F9008955F926F927F928F929F9251
:102F8000AF92BF92CF92DF92EF92FF920F931F9377
:102F9000CF93DF93EC01F62E642E8C0108591F4F5E
:102FA000F8017680C780F801D084D7185F2CDF1431
:102FB00008F45D2CF80184809580E4842E2D4C2D3E
:102FC000672D828193810E94BA155C012E2D4C2DB4
:102FD000672DC4010E94D3156620D9F02EA12F8B36
:102FE0002FA1288F28A5298FBC8AAB8A9E8B8D8B19
:102FF000852D90E09B8F8A8F2E2D30E03D8F2C8F7A
:10300000CE010E94D216FD1470F0FD18C394712CED
:10301000CACFF80123852111F6CF29A52F8B2AA528
:10302000288F2BA5E0CFF70CF801F682C782DF913D
:10303000CF911F910F91FF90EF90DF90CF90BF90B5
:10304000AF909F908F907F906F905F900895CF93F7
:10305000DF93CDB7DEB728970FB6F894DEBF0FBE6B
:10306000CDBFDC0111964D915D916D917C911497CE
:103070004D835E836F8378871A8219821C821B823C
:103080001596ED91FC91AE014F5F5F4F6CE070E0E3
:10309000099528960FB6F894DEBF0FBECDBFDF911D
:1030A000CF910895EF92FF920F931F93CF93DF93E9
:1030B0001092350410923604109237048FE094E099
:1030C0000E9427180091120410911304E09010043C
:1030D000F0901104D0E0C0E0C8018C1B9D0B1816C5
:1030E000190674F08FEF8093350480933604809333
:1030F0003704DF91CF911F910F91FF90EF900895CA
:1031000080913504809326048091360480932704AF
:103110008091370480932804109223041092220493
:10312000D0932504C0932404F0922A04E092290449
:1031300010922C0410922B048FE094E00E94D2167F
:103140002196CACFCF93DF93EC01AC014F5F5F4F65
:10315000ED81FE816FE070E00995CE01DF91CF91A6
:103160000C94271880910F048E7F80930F04109287
:1031700019041092180481E090E090933004809339
:103180002F0410927404109273048093820410929E
:10319000D5041092D6041092D70484EA9EE090934E
:1031A00017048093160488EF98E190931504809398
:1031B000140410922104109220040E949A0E0E947E
:1031C000730E8FE094E00E94A2181092DD0410921A
:1031D000DC041092DF041092DE041092E004E1EAB5
:1031E000F4E08FEF819394E0EE3AF907D9F7089570
:1031F0006C30710551F06731710581F4DC0117966F
:10320000ED91FC9167E170E00994DC01A45ABF4F95
:1032100088E0FA0101900D928A95E1F781E090E053
:103220000895EF92FF920F931F93CF93DF9300D0F7
:1032300000D0CDB7DEB76F30710509F489C08C01BD
:10324000603171055CF46A307105C9F16B3071054C
:1032500009F477C0C8010E94F81868C0643171058C
:1032600009F483C065317105A9F70E944514892BC3
:1032700009F46BC0D8015C968D919C9181309105C9
:1032800009F49BC08230910509F4ACC061E171E0A2
:10329000892B09F494C0F801E588F6888FE990E05D
:1032A0008E199F09968B858B6BEA70E0C8010E948E
:1032B000EE12D8015696FC92EE92559783C084E6A2
:1032C00090E09A83898382E490E09C838B83D80189
:1032D0005196ED91FC917801B7ECEB0EF11CD70102
:1032E0008C9183FF08C030E020E050E040E06BE0CC
:1032F00070E0C8010995F7018081877F8083F8011C
:10330000EA53FF4F1082D8015196ED91FC919E0136
:103310002F5F3F4F50E040E06AE070E0C801099540
:10332000009721F0F7012081286020830F900F90F3
:103330000F900F90DF91CF911F910F91FF90EF9021
:10334000089564EA70E00E94EE1281E090E0EECF12
:1033500080E890E0DA0111969C938E9380EA90E0E9
:1033600013969C938E931297F0CF0E942D14892B65
:1033700061F3C8010E941514892B39F366E870E0E7
:10338000C8010E94EE12F80187898983808D8A83A3
:10339000818D8B830188F289E02D9E012F5F3F4F45
:1033A00041E050E063E170E0C80109952EE042E0A1
:1033B00061E0C8010E94A112C8CF60EF70E0C801AF
:1033C0000E94EE12F80187898983808D8A83818D1E
:1033D0008B83428D538D0188F289E02D9E012F5FF2
:1033E0003F4FE0CFF801E388F4888FE790E08E1933
:1033F0009F09948B838B6FEC70E0C8010E94EE12E2
:10340000D8015496FC92EE925397DCCFCF93DF9382
:103410006B307105B9F06F307105D1F06A3071050C
:1034200099F4EC016AE070E00E941119009739F0FC
:103430006FE271E0CE010E94EE1281E090E0DF9138
:10344000CF9108956BE070E0DF91CF910C9411194A
:1034500080E890E0FA019183808380EA90E0938392
:103460008283EBCFFC0120818681280F2083848515
:10347000958542855385840F951F95878487408560
:103480005185841795073CF03281230F2083841BDC
:10349000950B9587848708951F93CF93DF93FC0145
:1034A000162F6183842F861B990BEC0195838483EF
:1034B000215031093187208781E090E09383828316
:1034C000CE01B9010E94C92777836683D7FF09C05F
:1034D000D195C195D109D583C4838FEF9FEF938395
:1034E000828384819581B9010E94C927938782874D
:1034F00037FF02C02F5F3F4F3595279535872487CB
:103500001083DF91CF911F9108956F927F928F92D8
:103510009F92AF92BF92CF92DF92EF92FF920F9362
:103520001F93CF93DF9300D01F92CDB7DEB76731E3
:10353000710509F09BC08C016C0186E2C80ED11C9C
:103540003801A2E36A0E711C530178014801B9E207
:103550008B0E911CF6018FEFC81AD80AD8015A9623
:103560002D913C9143816081C5010E944C1ABEE0BF
:10357000AB0EB11CC814D90469F7C8010E944514E8
:10358000892B09F473C0D8015E96ED91FC913E2F12
:103590006801BAE2CB0ED11CD701D8962C91D897EE
:1035A000329F202D1124D2962C93D297DA966D91CA
:1035B0007C91DB97DC964D915C91E49FC001E59F87
:1035C000900DF49F900D1124AB0177FF02C04F5F67
:1035D0005F4F55954795840F951F0E94C927D701C6
:1035E000D4964D915C91D59757FD54C0620FD296F9
:1035F0006C93D701DF969C938E93DE97D2968C9135
:10360000D297D3969C91D397890FD2968C93BEE094
:10361000EB0EF11CCE14DF0409F0BECFF801848D4F
:10362000958D81309105D1F182309105D1F1892BB1
:1036300009F048C061E171E0C8010E94EE12F12C6E
:10364000E12C6801F0E4CF0ED11C58018EE4A80EE5
:10365000B11CF801828D938DE816F9060CF443C075
:103660002EE042E061E0C8010E94A11281E090E0FA
:103670000F900F900F90DF91CF911F910F91FF90BE
:10368000EF90DF90CF90BF90AF909F908F907F9002
:103690006F900895261BD2962C93ABCF60EF70E00D
:1036A000CBCFE388F4888FE790E08E199F09948B45
:1036B000838B6FEC70E0C8010E94EE12F801F48A6F
:1036C000E38ABDCFE588F6888FE990E08E199F09DF
:1036D000968B858B6BEA70E0C8010E94EE12F801B0
:1036E000F68AE58AACCFD801D2968C918983F6010F
:1036F00080818A83D5018C918B83D8015196ED917D
:10370000FC919E012F5F3F4F41E050E063E170E08C
:10371000C8010995C3010E94321AC6010E94321ADB
:10372000C5010E94321ABFEFEB1AFB0A92CF2F920B
:103730003F924F925F926F927F928F929F92AF9241
:10374000BF92CF92DF92EF92FF920F931F93CF938E
:10375000DF93EC01462E3C0125ED620E711CF30156
:1037600050807C01F3EDEF0EF11CF701A080B180D9
:103770006C01F1EDCF0ED11CF601808091808C019F
:103780000C5F1F4FF1E05F1609F43FC05F1690F128
:1037900022E0521609F444C083E0581609F44BC0E5
:1037A000FE01E259FF4F918280823296B182A0825F
:1037B000389650827097808191814596E0E6E415B5
:1037C00008F044C0FE01E457FF4F20813181820F91
:1037D000931F9C012F5F3F4FF9014491442309F44B
:1037E000DDC0FC0144914416C9F1F9012491820F16
:1037F000911DEFCFFC01E659FF4F0190F081E02DC4
:10380000C8010995A80EB91ECBCFFC01E659FF4FA0
:103810000190F081E02DC8010995881A990AC0CF5E
:10382000FC01E659FF4F0190F081E02DC801099598
:10383000A81AB90AB5CFFE01E659FF4F0190F081F1
:10384000E02DC8010995880E991EAACFF0E4F41561
:1038500008F0BFCFFE01E657FF4FB7CF009709F43E
:103860009DC05E01FCE6AF0EB11CF501128602960A
:103870009183808371966081C5010E94EC15F501EA
:10388000808772966081C5010E94EC15482EF50173
:10389000818773962080622DC5010E94EC15982EB9
:1038A000FE01E058FF4F8080682DC5010E94EC1595
:1038B000382EFE01EF57FF4F5080652DC5010E9445
:1038C000EC155A9441E050E09A0101C0220F5A943D
:1038D000EAF7582E521AF501808518160CF04BC0E5
:1038E0002A94CA0101C0880F2A94EAF7981A2484FE
:1038F000340C8A9401C0440F8A94EAF7842E83180A
:10390000222D482D692D828193810E94BA15F501DF
:1039100093838283222D482D692D848195810E9475
:10392000D315F50195838483168217824E01FBE738
:103930008F0E911CC458DF4FF4016081C5010E94B5
:10394000EC15282E6881C5010E94EC15382E40E048
:10395000622DC8010E94BB1741E0632DC8010E947F
:10396000BB1761E0C5010E94EC158111F0CFF50194
:10397000878184150CF3852D550C990BF30120815B
:10398000213059F170F0F601223009F0F701208161
:103990003181281B390B318320830AC090E080E0FD
:1039A000EDCFF60120813181820F931F91838083B7
:1039B00081E090E0DF91CF911F910F91FF90EF9008
:1039C000DF90CF90BF90AF909F908F907F906F903F
:1039D0005F904F903F902F900895F701E3CF8EBDF9
:1039E00000000DB407FEFDCF8EB50895089590E058
:1039F00080E00895FC0101900020E9F73197AF01C4
:103A0000481B590BBC018BE094E00C945211CF93EE
:103A1000DF93EC0188819981009711F00E94CB29F6
:103A2000198218821D821C821B821A82DF91CF911B
:103A30000895FC0180819181009711F00C94CB29AD
:103A400008950F931F93CF93DF93EC0188819981A1
:103A5000009759F02A813B812617370730F081E023
:103A6000DF91CF911F910F9108958B016F5F7F4F71
:103A70000E94542A009759F0998388831B830A83F4
:103A80002C813D81232B59F7FC011082E8CF80E087
:103A9000E7CFCF92DF92EF92FF920F931F93CF93D6
:103AA000DF93CDB7DEB728970FB6F894DEBF0FBE11
:103AB000CDBF7C01CB014AE09E012F5F3F4F6901E2
:103AC000B9010E94F325F60101900020E9F7319732
:103AD000EC19FD09D9F0D70114960D911C910E0F28
:103AE0001F1FB801C7010E94211D882381F0F70123
:103AF0002081318184819581B601820F931F0E94BC
:103B00001A2BD70115961C930E93149781E02896D3
:103B10000FB6F894DEBF0FBECDBFDF91CF911F91DE
:103B20000F91FF90EF90DF90CF900895EF92FF926A
:103B30000F931F93CF93DF93EC017B018A01BA01AE
:103B40000E94211D81110BC0CE010E94071DCE01D4
:103B5000DF91CF911F910F91FF90EF9008951D83FA
:103B60000C83B701888199810E941A2BF0CFCF92E4
:103B7000DF92EF92FF920F931F93CF93DF937C011D
:103B8000EA018901FB013A97EC30F10508F0B8C071
:103B9000E453F24E0C94DD27FE1D8E1EB21EBD1E98
:103BA000C81ECC1ED21ED61EDF1EEC1EF21DD81D56
:103BB00083E9E80EF11C209709F4A2C0F801908176
:103BC000992341F0F701808160E0913009F061E0D4
:103BD0000E947E10F80181810E94EF1C0E5F1F4F32
:103BE0002197E9CFC20FD31FC017D10709F488C0AE
:103BF000F80181918F010E94EF1CF6CFFC01EE5677
:103C0000FF4F80818F3F19F061E00E94CA10F701D9
:103C1000ED56FF4F61E080810E94CA10F701EC561B
:103C2000FF4F80818F3F19F061E00E94CA10CFB72B
:103C3000F89480917D01811127C0EBEAF1E0849135
:103C4000EDE8F1E09491E82FF0E0EE0FFF1FEB5963
:103C5000FE4FA591B491EC91E92321F461E08AE053
:103C60000E947E1061E08AE00E94CA108CB58061DB
:103C70008CBD8CB580648CBD61E08DE00E94CA1063
:103C800061E08BE00E94CA1080917D018F5F80937C
:103C90007D01CFBFF8012081318150E040E060E03C
:103CA0007AEC8AE99BE30E948C27C12C62E1D62E34
:103CB0006AE7E62EF12C80E02C153D054E055F05E8
:103CC00040F4F694E794D794C7948F5F8630A1F7B9
:103CD00087E0982F906A96958095817020917C015D
:103CE000222361F02FB7F89430917C01313099F4A0
:103CF0003DB330937B013DB33DBB2FBF9CBD8DBD1C
:103D000081E090E0DF91CF911F910F91FF90EF90B4
:103D1000DF90CF90089520937B01F0CF80917C01BC
:103D2000882351F09FB7F89420917C0180917B010A
:103D30002130B1F48DBB9FBF9FB7F89480917D0176
:103D4000882319F0815080937D0180917D0181113C
:103D500005C08CB58F7B8CBD10927C019FBFD0CFEE
:103D60008FBFEACF4230510558F2CC0FDD1FCC0F88
:103D7000DD1F25972197F1F7C3CFFC01EE56FF4FCA
:103D800080816C2F8F3F09F4BBCF0E947E10B8CF8B
:103D9000FC01EC56FF4FF4CFFC01ED56FF4F642FB2
:103DA0008081F3CF842F0E94EF1CAACF209709F4C3
:103DB000A7CFF80180810E94EF1C2197F7CF2097B1
:103DC00009F49ECFF80180810E94EF1CF8018181E7
:103DD0000E94EF1C2197F3CF209709F491CFF801AF
:103DE00080810E94EF1CF80181810E94EF1CF80184
:103DF00082810E94EF1C2197EFCF1F920F920FB686
:103E00000F9211242F933F938F939F93AF93BF9360
:103E10008091410390914203A0914303B0914403E8
:103E20003091400323E0230F2D3758F50196A11D53
:103E3000B11D209340038093410390934203A093CC
:103E40004303B09344038091450390914603A091AE
:103E50004703B09148030196A11DB11D809345030E
:103E600090934603A0934703B0934803BF91AF914B
:103E70009F918F913F912F910F900FBE0F901F90A8
:103E8000189526E8230F0296A11DB11DD2CF1F92CF
:103E90000F920FB60F9211242F933F934F935F937E
:103EA0006F937F938F939F93AF93BF93EF93FF9302
:103EB00089E493E00E94D011FF91EF91BF91AF91FF
:103EC0009F918F917F916F915F914F913F912F9132
:103ED0000F900FBE0F901F9018951F920F920FB664
:103EE0000F9211242F938F939F93EF93FF93E09161
:103EF0005903F0915A038081E0915F03F0916003D0
:103F000082FD1BC09081809162038F5F8F7320912F
:103F10006303821741F0E0916203F0E0E75BFC4F3E
:103F2000958F80936203FF91EF919F918F912F91D5
:103F30000F900FBE0F901F9018958081F4CF1F92A5
:103F40000F920FB60F9211242F933F934F935F93CD
:103F50006F937F938F939F93AF93BF93CF93DF9391
:103F6000EF93FF9380917A01C0910A04D0E087FF1C
:103F700024C0109285001092840080917A018F5F96
:103F800080937A0180917A01082E000C990B8C178E
:103F90009D0724F480917A018C30C4F180918400D3
:103FA00090918500049680349C4908F47AC08091F1
:103FB000840090918500049676C080917A01082E45
:103FC000000C990B8C179D07C4F6E0917A018E2F97
:103FD000EE0F990BFC01EE0FFF1FE80FF91FEA51DE
:103FE000FC4F808186FFC9CFE0917A018E2FEE0FC2
:103FF000990BFC01EE0FFF1FE80FF91FEA51FC4F70
:10400000808160E08F730E947E10B7CF2091840082
:1040100030918500E0917A018E2FEE0F990BFC0113
:10402000EE0FFF1FE80FF91FEA51FC4F81819281CB
:10403000820F931F9093890080938800E0917A010A
:104040008E2FEE0F990BFC01EE0FFF1FE80FF91FEB
:10405000EA51FC4F808186FF11C0E0917A018E2FDA
:10406000EE0F990BFC01EE0FFF1FE80FF91FEA514D
:10407000FC4F808161E08F730E947E10FF91EF9171
:10408000DF91CF91BF91AF919F918F917F916F9170
:104090005F914F913F912F910F900FBE0F901F9006
:1040A000189580E49CE990938900809388008FEFB5
:1040B00080937A01E3CFCF92DF92EF92FF920F933A
:1040C0001F93E82FF92F05C001501109210931096B
:1040D00061F1908196239417B9F305C0015011093D
:1040E0002109310911F1908196239413F7CFC12C46
:1040F000D12CE12CF12C0AC08FEFC81AD80AE80A9B
:10410000F80A0C151D052E053F0579F080818623E0
:10411000841791F36C2D7D2D8E2D9F2D1F910F9166
:10412000FF90EF90DF90CF90089560E070E080E026
:1041300090E01F910F91FF90EF90DF90CF90089546
:1041400010924C0310924B0388EE93E0A0E0B0E095
:1041500080934D0390934E03A0934F03B09350036D
:104160008AE091E090934A038093490385EC90E0C4
:10417000909356038093550384EC90E090935803FA
:104180008093570380EC90E090935A0380935903F7
:1041900081EC90E090935C0380935B0382EC90E071
:1041A00090935E0380935D0386EC90E090936003B0
:1041B00080935F0310926203109263031092640372
:1041C0001092650380910A048C3008F07BC091E066
:1041D000980F90930A048093E10490E0FC01EE0FA5
:1041E000FF1FE80FF91FEA51FC4F88EB9BE0928319
:1041F000818310920E0410920D048CE191E0909353
:104200000C0480930B040E94B2188CE191E090930F
:104210000C0480930B040E94B21886E09AE19093FC
:10422000D9048093D80485E89AE19093DB048093C5
:10423000DA0488E08093A10489E08093A2048AE0F4
:104240008093A304E9EAF1E0E491F0E0EE0FFF1FB0
:10425000E956FE4F859194919093AF048093AE04FC
:10426000EBE8F1E0E491E093C804EAEAF1E0E491DC
:10427000F0E0EE0FFF1FE956FE4F85919491909369
:10428000B1048093B004ECE8F1E0E491E093C90458
:10429000EBEAF1E0E491F0E0EE0FFF1FE956FE4F8C
:1042A000859194919093B3048093B204EDE8F1E08A
:1042B000E491E093CA048CE191E090930C04809324
:1042C0000B0408958FEF8093E10493CFCF93DF9396
:1042D000CDB7DEB76A970FB6F894DEBF0FBECDBF7D
:1042E000789484B5826084BD84B5816084BD85B5D1
:1042F000826085BD85B5816085BD80916E008160DD
:1043000080936E0010928100809181008260809382
:104310008100809181008160809381008091800084
:104320008160809380008091B10084608093B100AF
:104330008091B00081608093B00080917A008460A9
:1043400080937A0080917A00826080937A008091D5
:104350007A00816080937A0080917A0080688093EF
:104360007A001092C1008091DA049091DB044091B0
:10437000D8045091D90420910F042E7F20930F046C
:10438000109219041092180421E030E030933004A8
:1043900020932F04109274041092730420938204CB
:1043A0001092D5041092D6041092D704009711F4FD
:1043B00084EA9EE0909317048093160450931504AA
:1043C0004093140487EB9DE1909321048093200493
:1043D0000E949A0E0E94730E8FE094E00E94A21831
:1043E000109282048091180490911904009741F072
:1043F00090931504809314041092190410921804D9
:104400008FE094E00E94A2188FE094E00E942718A9
:1044100080911404909115049093190480931804CA
:1044200085E495E190931504809314048FE094E063
:104430000E94A2188FE094E00E94271861E086E0B5
:104440000E94CA1060E085E00E94CA10E091590302
:10445000F0915A0382E08083E0915503F091560376
:104460001082E0915703F091580380E1808310920D
:104470006103E0915D03F0915E0386E08083E0914B
:104480005B03F0915C03808180618083E0915B033A
:10449000F0915C03808188608083E0915B03F09100
:1044A0005C03808180688083E0915B03F0915C0312
:1044B00080818F7D80838091E1048C3008F051C031
:1044C00061E083E00E94CA108091E104282F30E06F
:1044D000F901EE0FFF1FE20FF31FEA51FC4F90812D
:1044E000907C936090831092E2041092E3042CE09D
:1044F000622F0E94BD27829FB001112430E020E08E
:10450000AB01420F531FFA01EE0FFF1FE40FF51F1F
:10451000EA51FC4F908196FD16C02F5F3F4F2C3023
:10452000310571F781110FC01092800082E08093F5
:1045300081001092850010928400B19A80916F00E2
:10454000826080936F00E091E1048E2F90E0FC0187
:10455000EE0FFF1FE80FF91FEA51FC4F80818064C6
:1045600080838AE590E00E94A70E81E08093820418
:104570001092350484E6809336041092370405E3E4
:1045800014E0EEE7EE2EE1E0FE2EF8010F5F1F4F84
:1045900020E830E046816081C7010E944C1A20E883
:1045A00030E0F80140856281C7018A960E944C1A6A
:1045B000FEE0EF0EF11C84E00833180731F710E03D
:1045C00000E070EAE72EF12C80917E0180933504A3
:1045D00080918C018093360480919A0180933704F6
:1045E0008091A801809338048091B60180933904AA
:1045F0008091C40180933A04109223041092220403
:104600001093250400932404F0922A04E0922904D4
:1046100010922C0410922B04E0911404F0911504D4
:1046200042E254E067E170E08FE094E009958EE7A4
:1046300091E00E94321A8CE891E00E94321A8AE9D5
:1046400091E00E94321A88EA91E00E94321A86EBC9
:1046500091E00E94321A84EC91E00E94321A0F5FBE
:104660001F4F0038110509F0AFCF109235048FEFBE
:10467000809336041092370489E190E09093DD0432
:104680008093DC0408E210E01093DF040093DE0462
:1046900085EB91E00E94231684E291E00E94FA1CCF
:1046A00083EC93E10E9423161093DD040093DC0455
:1046B00084E690E09093DF048093DE0482E391E04F
:1046C0000E94FA1C60ED77E080E090E00E942011EB
:1046D0001092350410923604109237040E9452183A
:1046E00080E390E10E942316109282041092350418
:1046F00088E2809336041092370443E050E066E786
:1047000070E080E590E00E946C170DE110E022E07F
:10471000A80166E770E080E590E00E94271021E0A4
:10472000A80166E770E080E590E00E942710035E34
:104730001F4F0437110559F726E730E040EA50E0F3
:1047400066E770E090E080E00E94230F109235044D
:1047500084EB8093360410923704E6E4F0E0F093A3
:10476000DD04E093DC048FE090E09093DF0480931D
:10477000DE0483E491E00E94FA1CE6E4F0E0F093AA
:10478000DD04E093DC0480E290E09093DF0480930A
:10479000DE0489E491E00E94FA1CE6E4F0E0F09384
:1047A000DD04E093DC048CE390E09093DF048093DD
:1047B000DE048EE491E00E94FA1CE6E4F0E0F0935F
:1047C000DD04E093DC0489E590E09093DF048093BE
:1047D000DE0483E591E00E94FA1C412C512C320149
:1047E0006CE4262E33243A94C301B2012EE031E06A
:1047F00040E050E00E942327C9010E94A70E6EE10D
:1048000070E080E090E00E94201160E086E00E946D
:104810007E1083E090E00197F1F761E086E00E946E
:104820007E1083E290E00197F1F760E086E00E945D
:104830007E10E8E8F1E06491E6EAF1E08491E82F87
:10484000F0E0EE0FFF1FE55AFE4F8591949100E4D2
:1048500012E42FE030E0462F0E945B2061157105C5
:104860008105910509F4A4C16F5F7F4F8F4F9F4F62
:104870009F70611571058105910509F499C10E9428
:104880002A2626E933E44BE05DE30E94652620E01A
:1048900030E040E05FE30E9465260E9469288B01BA
:1048A000B101032C000C880B990B0E942A2625E3EA
:1048B0003AEF4EE85CE30E9465266B017C010E94A2
:1048C00064286B8B7C8B8D8B9E8B20E030E042EDDF
:1048D00052E40E94652620E030E040EA52E40E9463
:1048E000F8270E9469284B01C701B6010E94DE2803
:1048F0006B017C0120E030E042ED52E40E9465262D
:104900009B01AC0160E070E08CEE92E40E94F7271E
:104910000E9469286F8B788F898F9A8F1092350447
:10492000FFEFF0933604109237042F89388DA401DD
:1049300066E770E080E590E00E94230F64E170E09C
:1049400080E090E00E94201110923504109236040D
:10495000109237042F89388DA40166E770E080E556
:1049600090E00E94230F04361105ECF58FEF809341
:1049700035041092360410923704B801012E000C51
:10498000880B990B0E942A2623E333E343E95FE374
:104990000E9465264B015C01AC019B01C701B60179
:1049A0000E9465269B01AC0160E070E08CEE92E411
:1049B0000E94F7270E9469286B01A50194016B8969
:1049C0007C898D899E890E94652620E030E040EA3E
:1049D00052E40E94F8270E946928CB0142E050E08F
:1049E000B6010E946C1780913E0390913F038B3576
:1049F000910594F49C01220F331FF901E857FD4FF4
:104A0000318220822E523E4FF9011183008301969C
:104A100090933F0380933E03F2E02F0E311C88E613
:104A2000480E81E0581E611C711C90E449169FEBF2
:104A300059066104710409F0D7CE10923504109222
:104A40003604109237040E945218109235048FEFEA
:104A5000809336041092370483EC93E10E9423166E
:104A60008AE090E09093DD048093DC0484E190E0A0
:104A70009093DF048093DE0488E591E00E94FA1CA5
:104A800082EDC82E81E0D82E98E8A92E92E0B92EAA
:104A9000F12CE12C80913E0390913F03E816F9063A
:104AA0000CF08EC0F601819091906F01F50101919B
:104AB00011915F0118861F821A8619861C861B8633
:104AC00047E050E066E671E0CE0107960E94961D31
:104AD0001A8219821C821B821E821D826F81788538
:104AE0006115710531F04B855C85CE0101960E9400
:104AF000961DB801CE0101960E94491D811104C086
:104B0000CE0101960E94071D0D811E81095F1F4F76
:104B1000B801CE0101960E94211D882309F44BC0E3
:104B200029813A818D819E816EE671E0820F931F0B
:104B30000E941A2B1E830D83B401CE0101960E94A0
:104B4000491D811104C0CE0101960E94071D1E86D9
:104B50001D86188A1F861A8A198A69817A816115C9
:104B6000710531F04D815E81CE010D960E94961D3A
:104B7000CE0101960E94191DCE0107960E94191DB3
:104B800049895A896D857E8589E493E00E94521196
:104B900042E050E066E771E089E493E00E94521140
:104BA000CE010D960E94191DFFEFEF1AFF0A72CF7A
:104BB00007EE13E075CECE0101960E94071DBCCF13
:104BC00068EE73E080E090E00E94201180E090E0C9
:104BD000892B09F48BCD0E94BC11882309F486CD62
:104BE0000E94000083CDBB274A3031F4992322F480
:104BF000BDE2909581959F4F0C94FF25BB27FB014B
:104C00005527AA27880F991FAA1FA41710F0A41BC5
:104C100083955051B9F7A05DAA3308F0A95DA1931F
:104C2000009779F7B111B1931192CB010C9418262A
:104C3000DC01FC01672F71917723E1F7329704C003
:104C40007C916D9370836291AE17BF07C8F308958E
:104C5000E89409C097FB3EF4909580957095619516
:104C60007F4F8F4F9F4F9923A9F0F92F96E9BB27CC
:104C70009395F695879577956795B795F111F8CF48
:104C8000FAF4BB0F11F460FF1BC06F5F7F4F8F4FB3
:104C90009F4F16C0882311F096E911C0772321F0A9
:104CA0009EE8872F762F05C0662371F096E8862F41
:104CB00070E060E02AF09A95660F771F881FDAF798
:104CC000880F9695879597F908950E9478260C94F9
:104CD000E9260E94DB2638F00E94E22620F0952388
:104CE00011F00C94D2260C94D82611240C941D2774
:104CF0000E94FA2670F3959FC1F3950F50E0551F5F
:104D0000629FF001729FBB27F00DB11D639FAA2720
:104D1000F00DB11DAA1F649F6627B00DA11D661F6F
:104D2000829F2227B00DA11D621F739FB00DA11D90
:104D3000621F839FA00D611D221F749F3327A00D4A
:104D4000611D231F849F600D211D822F762F6A2FE6
:104D500011249F5750409AF0F1F088234AF0EE0F4B
:104D6000FF1FBB1F661F771F881F91505040A9F778
:104D70009E3F510580F00C94D2260C941D275F3F76
:104D8000E4F3983ED4F3869577956795B795F795B4
:104D9000E7959F5FC1F7FE2B880F911D969587952C
:104DA00097F9089597F99F6780E870E060E00895AB
:104DB0009FEF80EC089500240A9416161706180633
:104DC0000906089500240A9412161306140605060F
:104DD0000895092E0394000C11F4882352F0BB0FA0
:104DE00040F4BF2B11F460FF04C06F5F7F4F8F4F03
:104DF0009F4F089557FD9058440F551F59F05F3F3E
:104E000071F04795880F97FB991F61F09F3F79F0EC
:104E100087950895121613061406551FF2CF46956E
:104E2000F1DF08C0161617061806991FF1CF8695F0
:104E30007105610508940895E894BB2766277727D4
:104E4000CB0197F90895052E97FB1EF400940E945C
:104E50003A2757FD07D00E948C2707FC03D04EF459
:104E60000C943A2750954095309521953F4F4F4FE0
:104E70005F4F089590958095709561957F4F8F4F06
:104E80009F4F08950E94AE27A59F900DB49F900D4F
:104E9000A49F800D911D11240895B7FF0C94422703
:104EA0000E944227821B930B08952F923F924F92AC
:104EB0005F926F927F928F929F92AF92BF92CF92AA
:104EC000DF92EF92FF920F931F93CF93DF93CDB7B3
:104ED000DEB7CA1BDB0B0FB6F894DEBF0FBECDBF2B
:104EE00009942A88398848885F846E847D848C84FC
:104EF0009B84AA84B984C884DF80EE80FD800C8105
:104F00001B81AA81B981CE0FD11D0FB6F894DEBFE7
:104F10000FBECDBFED010895A1E21A2EAA1BBB1B47
:104F2000FD010DC0AA1FBB1FEE1FFF1FA217B30775
:104F3000E407F50720F0A21BB30BE40BF50B661F8B
:104F4000771F881F991F1A9469F76095709580954F
:104F500090959B01AC01BD01CF010895A29FB001C6
:104F6000B39FC001A39F700D811D1124911DB29F9D
:104F7000700D811D1124911D0895991B79E004C0C5
:104F8000991F961708F0961B881F7A95C9F7809588
:104F9000089597FB072E16F4009407D077FD09D0EB
:104FA0000E94E32707FC05D03EF4909581959F4F22
:104FB0000895709561957F4F0895EE0FFF1F05903E
:104FC000F491E02D0994AA1BBB1B51E107C0AA1F55
:104FD000BB1FA617B70710F0A61BB70B881F991F9A
:104FE0005A95A9F780959095BC01CD010895505828
:104FF000BB27AA270E940F280C94E9260E94DB26D3
:1050000038F00E94E22620F039F49F3F19F426F48C
:105010000C94D8260EF4E095E7FB0C94D226E92FE9
:105020000E94FA2658F3BA17620773078407950798
:1050300020F079F4A6F50C941C270EF4E0950B2EC5
:10504000BA2FA02D0B01B90190010C01CA01A001DA
:105050001124FF27591B99F0593F50F4503E68F135
:105060001A16F040A22F232F342F4427585FF3CF76
:10507000469537952795A795F0405395C9F77EF447
:105080001F16BA0B620B730B840BBAF09150A1F090
:10509000FF0FBB1F661F771F881FC2F70EC0BA0F16
:1050A000621F731F841F48F4879577956795B7959E
:1050B000F7959E3F08F0B0CF9395880F08F0992799
:1050C000EE0F9795879508950E94A128E3950C947B
:1050D000CA280E9470286894B1110C941D27089565
:1050E0000E94022788F09F5798F0B92F9927B7514F
:1050F000B0F0E1F0660F771F881F991F1AF0BA957C
:10510000C9F714C0B13091F00E941C27B1E0089596
:105110000C941C27672F782F8827B85F39F0B93F88
:10512000CCF3869577956795B395D9F73EF490952E
:105130008095709561957F4F8F4F9F4F08950C9488
:10514000D8260E940227D8F3E894E0E0BB279F57B7
:10515000F0F02AED3FE049EC06C0EE0FBB0F661FF2
:10516000771F881F28F0B23A62077307840728F078
:10517000B25A620B730B840BE3959A9572F78038E1
:1051800030F49A95BB0F661F771F881FD2F790489F
:105190000C94E828EF93E0FF07C0A2EA2AED3FE075
:1051A00049EC5FEB0E940F280E94E9260F900394C0
:1051B00001FC9058E8E6F0E00C94F4289F930E94DC
:1051C000A1280F9007FCEE5F0C94CA289F3F31F096
:1051D000915020F4879577956795B795880F911D25
:1051E0009695879597F908959F938F937F936F93E3
:1051F000FF93EF939B01AC010E946526EF91FF9115
:105200000E9408292F913F914F915F910C94652640
:10521000DF93CF931F930F93FF92EF92DF927B0167
:105220008C01689406C0DA2EEF010E947826FE01F8
:10523000E894A5912591359145915591A6F3EF01FB
:105240000E940F28FE019701A801DA9469F7DF9008
:10525000EF90FF900F911F91CF91DF9108950F93E1
:105260001F93CF93DF938230910510F482E090E09A
:10527000E091E604F091E70430E020E0B0E0A0E047
:10528000309799F42115310509F44AC0281B390BD0
:1052900024303105D8F58A819B816115710589F12A
:1052A000FB0193838283FE0111C040815181028101
:1052B000138148175907E0F04817590799F41097D8
:1052C00061F012960C93129713961C933296CF01AD
:1052D000DF91CF911F910F9108950093E6041093F1
:1052E000E704F4CF2115310551F04217530738F088
:1052F000A901DB019A01BD01DF01F801C1CFEF0176
:10530000F9CF9093E7048093E604CDCFFE01E20F3E
:10531000F31F819391932250310939832883D7CF8A
:105320002091E4043091E504232B41F42091020103
:10533000309103013093E5042093E40420910001AF
:10534000309101012115310541F42DB73EB740914F
:10535000040150910501241B350BE091E404F09108
:10536000E504E217F307A0F42E1B3F0B28173907BB
:1053700078F0AC014E5F5F4F2417350748F04E0FB1
:105380005F1F5093E5044093E404819391939FCF72
:10539000F0E0E0E09CCFCF93DF930097E9F0FC01D1
:1053A000329713821282A091E604B091E704ED01D6
:1053B00030E020E01097A1F420813181820F931F0B
:1053C0002091E4043091E5042817390709F061C001
:1053D000F093E504E093E404DF91CF910895EA01AE
:1053E000CE17DF07E8F54A815B819E014115510523
:1053F000B1F7E901FB83EA8349915991C40FD51FA5
:10540000EC17FD0761F4808191810296840F951F4E
:10541000E90199838883828193819B838A83F0E069
:10542000E0E012968D919C9113970097B9F52D911C
:105430003C911197CD010296820F931F2091E404B5
:105440003091E5042817390739F6309751F5109255
:10545000E7041092E604B093E504A093E404BCCF03
:10546000D383C28340815181840F951FC817D90708
:1054700061F44E5F5F4F88819981480F591F5183B6
:1054800040838A819B81938382832115310509F0B2
:10549000B0CFF093E704E093E6049ECFFD01DC017A
:1054A000C0CF13821282D7CFB0E0A0E0EAE5FAE2E3
:1054B0000C9457278C01009751F4CB010E942F299F
:1054C0008C01C801CDB7DEB7E0E10C947327FC0175
:1054D000E60FF71F9C0122503109E217F30708F489
:1054E0009DC0D901CD91DC911197C617D70798F0CF
:1054F000C530D10530F3CE0104978617970708F31E
:10550000C61BD70B2297C193D1936D937C93CF0188
:105510000E94CB29D6CF5B01AC1ABD0A4C018C0E80
:105520009D1EA091E604B091E704512C412CF12C72
:10553000E12C109731F58091E4049091E5048815F1
:10554000990509F05CC04616570608F058C08091CE
:10555000000190910101009741F48DB79EB74091F1
:10556000040150910501841B950BE817F90708F019
:1055700055C0F093E504E093E404F901718360837E
:10558000A0CF8D919C91119712966C9012971396C3
:105590007C901397A815B90559F56C0142E0C40E2B
:1055A000D11CCA14DB0420F1AC014A195B09DA01F1
:1055B0001296159780F06282738251834083D901DD
:1055C0006D937C93E114F10471F0D7011396FC9371
:1055D000EE93129776CF22968C0F9D1FF90191833F
:1055E0008083F301EFCFF093E704E093E60469CF03
:1055F0004816590608F42C017D01D3019ACFCB013E
:105600000E942F297C01009749F0AE01B8010E9449
:10561000112BC8010E94CB29870153CF10E000E075
:1056200050CFFB01DC0102C001900D92415050406F
:10563000D8F70895FB01DC0101900D920020E1F7FD
:065640000895F894FFCF6D
:105646000000E804800000000000F21152117F11F2
:105656003F12B0118E11A21100000000971B5211CB
:10566600F71CF61C5A2E492E4C2E472E412E4D2E37
:10567600520054657374696E67202E202E202E20EA
:105686004F4B00313030636D003735636D00353078
:10569600636D003235636D005363616E6E65642021
:1056A600446174613A00416E676C653A200020449B
:0A56B6006973743A20000D0A000029
:00000001FF
