:100000000C942E070C9456070C9456070C94560724
:100010000C9456070C9456070C9456070C945607EC
:100020000C9456070C9456070C9456070C94D3184E
:100030000C9456070C9456070C9456070C945607CC
:100040000C9431180C9456070C94A1180C947B183E
:100050000C9456070C9456070C9456070C945607AC
:100060000C9456070C94560705A84CCDB2D44EB943
:100070003836A9020C50B9918688083CA6AAAA2A4B
:10008000BE000000803F5F01040205050103061069
:1000900010FFFD0CFD0CFE026C05752007040EF927
:1000A0001C01210D054E691A6F422D357A08002278
:1000B0000A068E79917ECF1D00231E094ECA9154E7
:1000C0002415494532834126928A6406834C2415BF
:1000D000494552913C0500241E094E4AC1DC20943A
:1000E00088B490544806B1816C105144228A488BE0
:1000F000D020174C0325260E8EFB904D4C32886580
:1001000012314D229649E43289C4689190E41299E3
:100110005842134B6462914C2CB36726220D4EFB60
:10012000884150A2D3E42442457232C82434269236
:100130008C454834494C0691C840B2A705270903AD
:10014000CE4891F64400280E068EA9A1AA50AA67AF
:10015000A9581D00290D068E69AD62A91EA542B5DC
:10016000002A13080EBAA9448922A1D92812924460
:10017000559E43002B0E0A8EFAE4C96683412CD9A2
:100180009E0A2C0B040EF90C249A9208002D0A05E5
:100190004EF90C06790A002E09040EF90C246A00A7
:1001A0002F10054E99A14CA8269409D584F2200061
:1001B000301B094EBA839044138A88142285482143
:1001C00052881422492823110DF204310D094EDA08
:1001D000A941CE7F35D8C3013217094ECAAB4C9125
:1001E0004423D1C8746D8A2283416430C8A301338B
:1001F00015094EBA8350C68946A61A9A68241A4928
:100200004634C8133418094EEA39D92AA14A88223B
:10021000A28826A3190C543AD5608F063518094ECA
:10022000BA83CD20150C0E42124D4827D148349286
:100230008C6890273618094EBA8390449391E874DD
:1002400083CDC4482152882446833C013714094E8B
:10025000AA83416430888432A15C3017AC734F01AB
:10026000381A094EBA83904413CA68320BD120A4BD
:100270009868162285486234C8133918094EBA8323
:1002800090C4482152882492CD6067A2C948447B1B
:100290000A003A0B040EF930891E2351033B0D046A
:1002A0000EF930891E23D19444003C0C0A8EFA8C3E
:1002B000650EA5EE29003D0E0A8EFADC0E067ADCEC
:1002C00060A067063E0C0A8EFAACA40E65EE09012A
:1002D0003F1207CE999B8862A2C8A84456B1B04A83
:1002E0008F0440250E8EFBA04150A40A66320A45B9
:1002F00026A29094682225266D22998842128A9817
:10030000548654BA819E06411C0C0EFB906C7439C5
:100310004C0823BA886C3048854429514C32880CEB
:10032000F47400421A0C0ECB832BCDC837AAC140FF
:1003300024DAA8342A8D4A23920CEE2901431A0CA0
:100340000EFB88812233D2C822B3882E22359D65C8
:100350006499516CA0A704441C0D4EDB83814EB3FD
:10036000325289641A9946A691695422954873308D
:10037000D09303451C0C0ECB838390AB90A4489282
:100380001BE8143A494E52A40A990C0EF284004616
:100390001B0BCEBA83838C48A3CA486A24B1814C14
:1003A0002193C42431A56EB02704471E0D4EFB9047
:1003B00081223432CBCC32BA8C563490C8342B9153
:1003C0004AB4990D22795A0048140E8EEB83C56009
:1003D000A3F257832BFF9BC162B0A706490D07CE3E
:1003E00079838DCA7F33D8E3004A13094ECA8395B7
:1003F000CE3719C9C446120A0DF214004B1F0D4E18
:10040000DB83C540235289629A9C24A8102E7492E3
:1004100099462652892683C5404F0A4C140BCEBA02
:10042000839DD2AF32AA8C2A23520C0EF244004D87
:100430002A100EFC88816AA059BD4A6812AA842637
:10044000A14A4C12AA8822A28A2822AACC4495B199
:10045000CAD80C2491819E11004E220D4EDB83D010
:1004600040B20A0D4215A28A4D2832096516A190A4
:1004700022941AA54631C94095A7054F190D4EFB88
:1004800098A14665A4D2E8243A894EA2D3A8442A6A
:100490001BE19E1C50170BCEBA83231B954425519C
:1004A00049449AC120A47437D8130251200D4EFB41
:1004B00098A14665A4D2E8243A894E62A349448AA9
:1004C0002683946438C82A928AA806521C0C0ECB44
:1004D00083814C64A5516944A2C14CB212F9222215
:1004E000520C06193D1D00531C0A8EDA8344C64483
:1004F0001551458603D940139AA424298946931897
:10050000E4690054170BCEBA838384C422A34964E0
:1005100034898C26A5F4DD604F06551E0D4EDB8315
:10052000C940220BC942B2902C240BC942B2902C74
:10053000244B8972033D350056190C0ECB03CD6454
:1005400015528544314D4C92930415C1E5349B27D7
:10055000065728100EFC8841622099685419AB9008
:100560004693D2685293494C9150E4140945301196
:10057000490435D25034946708581E0BCEBA83CC48
:1005800020A1D2885292D82028150E62115548A376
:10059000520C32833C0D0059170C0ECB83C920A29C
:1005A0004A69629A9C22A8484A3D1CEC29015A19C2
:1005B0000A8EBA838144240969423A439D2623CA9C
:1005C000882222C5E09E025B0B068E799B54FFAB0E
:1005D00021005C110A8ECAC968329A8C26A3C968A8
:1005E000324F025D0A068E79ABFE6F86005E110AFD
:1005F0008EEA42DD201649494435223DCF005F0A8C
:10060000080EFAFC6E3010026008054E59ED3901F3
:100610006115094EFA4C06218946221B2934128D98
:1006200044B4D0A3016214094E9A3B77039144630A
:10063000A29168241A894D624F631007CEF9741B8A
:1006400085894265A6D0EC810064120A8EFA80A1E9
:10065000AB8148A2F18F24AA859E026514080EFA88
:10066000C4A34C44A3180C12329D4433C8630166E2
:1006700010068E89138591662011F966A00701671F
:100680001A094EFA4C0609134542A2916824A24168
:10069000283898881422C9600268110A8EAA432F4C
:1006A000468B8DFFC92031C85300690D054E691A6C
:1006B000F1C64F067904006A0D054E791AF1C6BFDE
:1006C000482826006B180A8EAA432F061223856A33
:1006D000101BA824228D649018E429006C0B054E91
:1006E000591BFF93411E016D150FCEFB3C584C4624
:1006F0009389C6FF9F0C1283C420CF026E110A8E0D
:10070000FAAC16A389C6FF649018E429006F140898
:100710000EFAC4238544A3D028340A8D4421DA83F9
:10072000017017094EFA0C142389C64423D14834AA
:10073000129B8148271BA4007115094EFA4C261103
:1007400037128D4423D19888063AB34102721007BC
:10075000CEF9540BC9C244A17234C82301731208E4
:100760000EFAB48B889BCC6C93919824F66000743D
:100770001207CEF988584A34D0A83C8948327B20E9
:1007800000750F0A8EFAAC261BFF8F06093D050087
:100790007613094EFA0C06894142631252A866BBD1
:1007A000609E02771B0D4EFB5C2D06894142A231F3
:1007B0009184240AD562B6D86582993C35007816B2
:1007C000094EFA0C06898926A448ED56095146B20D
:1007D00018E4D1007915094EFA0C06898926A4106F
:1007E000296277C19C48919A017A14080EFAB48361
:1007F00049461251C95492882632D843017B0D06CE
:100800008E99A15447B154CF82007C0A0A8EEAC95E
:10081000FEF754007D0D068E79B15467A1548FA266
:10082000007E0B0A8EFABC9B98EC39010000F41193
:100830003600102AA00000A0FF0062007F102BB03D
:100840000000B0FF0062009F102C7000F410101028
:1008500028F500F4113680113680102AA00000A07F
:10086000FF00A00000A0FF00102BB00000B0FF00B0
:1008700062009F102C7000F4113640113640102A8F
:10088000A00000A0FF0062007F102BB80100B0FFA5
:100890000062009F102C7000F4113600102AA00096
:1008A00000A0FF00A00000A0FF00102BB00000B0CF
:1008B000FF0062009F102C7000F4113600102AA077
:1008C0000000A0FF0062007F102BB00000B0FF000E
:1008D00062009F102C7000FDF1F58005F08005F19D
:1008E0008032F41011800A10131020113A061029DA
:1008F000113600142A0000007F142B0000009F1006
:100900002CF5000000000023002600290000000054
:1009100000240027002A0000000008000201000057
:10092000030407000000000000000001020408109A
:100930002040800102040810200102040810200059
:10094000000000250028002B000404040404040413
:10095000040202020202020303030303035F010312
:100960000204040102050C0BFFFE08FE08FF01A1B2
:1009700003812006B399E70A210AB4A1CDBA03592D
:100980008E01220CB6B107922CC9929C4F00231302
:10099000B8C1079334C9862D49936CD89234C9C91C
:1009A000002411B5A9CA9652926949944449B2E506
:1009B00008002515B9C9C7A42C4AB2485572205160
:1009C000A52C89B24827032615BAD14775208A93EA
:1009D0001C89C4A498A599144D3A0B002708B4A10A
:1009E000CDEA9C00280BB4A18EB2282B66610A299F
:1009F0000BB4A1AC8559298B72002A0DB6B147B250
:100A0000A43425B59C2B002B0BB6B167AD0D5A9ABB
:100A100053002C08B399678C92082D08B4A167DBAA
:100A200069002E09B4A1E792E518002F0AB4A1CEFF
:100A30004A5929AB033010B5A9962A5112255112F3
:100A40002551A4A300310AB5A90732B1B71D04325C
:100A50000DB5A9962A51983525430E02330EB5A936
:100A6000968A919A444914E92800340FB5A947326F
:100A7000298992523268D98E01350DB5A91D92305F
:100A80005CC3248A7414360EB5A95EA2249C2A5134
:100A900012453A0A370CB5A91D92280B6B611D0649
:100AA000380EB5A9962A512455A2248A7414390EF9
:100AB000B5A9962A5112456312253B0A3A0AB4A1F8
:100AC000A7D5812CC7003B0AB4A1A7D5812CCA01A8
:100AD0003C0CB7B9E7A8D9011DD029003D0BB6B130
:100AE000E734E8C0A053013E0CB7B9E7A0033AA031
:100AF000D9A9003F0BB5A9968A591D0A731840154C
:100B0000B9C91AC2529C444B53D2A2544C39944393
:100B1000438E024111B8C10773204ED224CCB2419A
:100B20002B2D3B0D4212B7B90706AD94454356CA6B
:100B3000A22C19741200430FB7B98786284BE276AE
:100B400020CB7612004412B8C14706312B466114FF
:100B500046619445834E054512B7B9074E599494A2
:100B6000C624CCA22C19760A00460FB7B9074E59F5
:100B70009494C6248CD39D084711B8C1C786AC9401
:100B80000339902D6156DCA9004812B9C9874E611E
:100B90001666C31666611646772A004909B4A19CF9
:100BA000B29E76084A0CB5A9DEC2A6244A221D06CA
:100BB0004B11B8C14726292B8549BA4661162D3BF2
:100BC0000D4C0DB7B907D6B85B9425C34E014D1334
:100BD000BAD1C75449734BDA92B6A42D2A2DC9CE87
:100BE000004E15B9C9874E5A25CA92288B922C4AB5
:100BF000B24C9A7432004F11B8C1C7C62C4A933414
:100C0000499334CAC29D0A5010B7B90706AD94453E
:100C100059346471BA13015113B8C1C7C62C4A9331
:100C2000344993442A893BA243005210B8C1470675
:100C300031EB140E61D6A4E93400530FB6B1078628
:100C4000244BD2594DB264C8095412B8C147862109
:100C5000892A513107722007E29D0A550BB8C14716
:100C60004E59FFE34E05560FB8C1474E598F499A6A
:100C7000C4399093015713BCE1479753D663D29A76
:100C8000B426CD590E6439075810B7B90724A916F0
:100C900085AA18655164A7005911B8C14734290BBA
:100CA000933489732007E29D0A5A10B6B11E942C22
:100CB00089C2348C922C1974185B09B39953A23EE3
:100CC00089005C0CB5A90DD3300DD33007015D0848
:100CD000B39993FA45045E0EB6B147D230C9922853
:100CE0004BB29C115F08B6B1E78FC3006007B399A0
:100CF000AB3302610CB6B167D4A26C2A0D3A0C6218
:100D00000AB6B156AB5BD4D34E630CB5A96758A2F3
:100D1000248C221D05640CB6B147D4DAD4B72187E0
:100D200001650CB5A967902A4392EE2000660BB4CA
:100D3000A1569AA6ACB44300670FB6B1671C92A83F
:100D400012A64392451300680FB7B907E4F218657D
:100D50005116458B4E01690AB4A18762AD698700BF
:100D60006A09B4A18762ADA70C6B0FB7B907E41687
:100D70002D09C7285A740A006C09B4A1D4FAB443E7
:100D8000006D0FBAD1E7353146B5A81695163B036D
:100D90006E0FB7B9E7908851166551B4E814006F2B
:100DA0000CB5A967902A5112453A0A700DB5A9678A
:100DB000902A51122553A801710BB6B167544ABD50
:100DC000ADE102720BB5A9272B9116663B0A730B96
:100DD000B5A967585235D95100740AB3998E2225A6
:100DE000AAC900750BB6B1678BFA4DC96100760EC2
:100DF000B6B16753862C4AB224CC2900770DB8C10E
:100E0000E718454B3F65ED4400780DB6B16753A434
:100E100024AC448A0E03790EB6B16753862C4AB2CD
:100E2000244C33117A0BB5A9270F59E39083007B2B
:100E30000BB4A18EB252981553007C09B6B147D2BB
:100E40007EA7007D0AB4A1AC15A3AC94037E0BB7BA
:100E5000B9E7454A229D13000000D41911241FBE92
:100E6000CFEFD8E0DEBFCDBF11E0A0E0B1E0ECEE07
:100E7000F9E402C005900D92A03DB107D9F723E037
:100E8000A0EDB1E001C01D92AB37B207E1F717E06A
:100E9000CEE2D7E004C02197FE010E94CF1FCD32E1
:100EA000D107C9F70E949A1A0C94F4240C940000FC
:100EB000E091AB02F091AC028091A60280FF0CC0E1
:100EC00050E040E06BE070E086EA92E009958091A6
:100ED000A6028E7F8093A602E091AB02F091AC0255
:100EE00050E040E06AE070E086EA92E00995009701
:100EF00029F02091A60221602093A602089586E899
:100F000097E090930D0380930C03089590E080E0A8
:100F1000089581E090E008958F929F92AF92BF92E2
:100F2000FF920F931F93CF93DF93F09078032BE002
:100F30002F1508F44CC020917A0308E512E0021B3B
:100F4000110927FD1395000F111F000F111F20918C
:100F50007903C8E8D0E0C21BD10927FDD395CC0F97
:100F6000DD1FCC0FDD1F4E010D2E000CAA08BB08A3
:100F70009801012E000C440B550B281939094A0918
:100F80005B09DC010E94761F24EB30E040E050E07A
:100F90000E944C1F820E931EA41EB51E8C169D0629
:100FA0002CF0E801801691060CF4E4012297CC0F96
:100FB000DD1F2FB7F8948F2D90E0FC01EE0FFF1F7F
:100FC000E80FF91FE358FD4FD283C1832FBFDF9194
:100FD000CF911F910F91FF90BF90AF909F908F90F6
:100FE00008955F926F927F928F929F92AF92BF927D
:100FF000CF92DF92EF92FF920F931F93CF93DF93E5
:10100000EC017B018A018091CC028093BD0280912A
:10101000CD028093BE028091CE028093BF025E011A
:10102000A41AB50A4C175D071CF05A01AC1ABD0A88
:101030002E153F0564F46701C21AD30AAC14BD042F
:101040004CF10C171D070CF45DC0512C18C0690140
:10105000CE18DF08AC14BD040CF075C09A2D8B2D92
:101060005601C92ED82E902F812F8901292F382F74
:101070009C2F8D2FE701E92EF82E5524539445011E
:1010800095948794E216F3060CF446C066246A949D
:10109000762C45C09A2D8B2D5601C92ED82E9E2D0B
:1010A0008F2D7801092F182F9C2F8D2FE901292FC3
:1010B000382FE3CF51101DC0D093BA02C093B902AC
:1010C000F092BC02E092BB02E091AB02F091AC0264
:1010D00050E040E064E170E086EA92E009958C1807
:1010E0009D0897FE04C0E60CF71C8A0C9B1C2196F9
:1010F00017C0F092BA02E092B902D093BC02C0933A
:10110000BB02E2CF450195948794902F812F8E01E9
:10111000C92FD82F7901512C66246394712CDD24BA
:101120000C171D073CF6DF91CF911F910F91FF9097
:10113000EF90DF90CF90BF90AF909F908F907F9077
:101140006F905F9008950C171D070CF07ECF45013E
:1011500095948794902F812F8E01C92FD82F7901D4
:10116000512C94CFE2EAF2E022A5238F23A5248F0D
:1011700024A5258F908F878B728F618F0184F285D4
:10118000E02D50E040E064E170E086EA92E00994EE
:10119000AF92BF92CF92DF92EF92FF920F931F9385
:1011A000CF93DF936C017B018A01E9015901A61AF3
:1011B000B70AB501CA018C0D9D1D0E94B208CC1959
:1011C000DD09BE01C701800F911F0E94B208B50161
:1011D000C8018C199D090E94B208BE01C8018E1970
:1011E0009F09DF91CF911F910F91FF90EF90DF90BA
:1011F000CF90BF90AF900C94B2086F927F928F9275
:101200009F92AF92BF92CF92DF92EF92FF920F9395
:101210001F93CF93DF933C014B01EA0101E010E003
:10122000041B150BEE24FF24E41AF50AEE0CFF1C38
:101230009B01A301BE0190E080E00E94C808D12C70
:10124000C12CAA24A394B12CCC16DD067CF0DF912E
:10125000CF911F910F91FF90EF90DF90CF90BF90B3
:10126000AF909F908F907F906F90089517FD06C06C
:10127000219782E0E80EF11C0E0D1F1D8FEFC81A9A
:10128000D80A82E0A80EB11C0A0D1B1D9401A3010F
:10129000BE01C6010E94C808D7CF90E0FC01E95EFC
:1012A000F64F2491FC01E55DF64F3491FC01E75BBC
:1012B000F64FE491EE23C9F0222339F0233001F1F7
:1012C000A8F4213019F1223029F1F0E0EE0FFF1FD0
:1012D000E15CF64FA591B4918FB7F894EC91611150
:1012E00026C030953E233C938FBF08952730A9F048
:1012F0002830C9F0243049F7809180008F7D03C0E9
:10130000809180008F7780938000DFCF84B58F77C6
:1013100084BDDBCF84B58F7DFBCF8091B0008F770C
:101320008093B000D2CF8091B0008F7DF9CF3E2B5B
:10133000DACFCF93DF9390E0FC01E55DF64F249187
:10134000875B964FFC0184918823C9F090E0880F59
:10135000991FFC01E35FF64FA591B491FC01E15C9C
:10136000F64FC591D49161110DC09FB7F8948C913F
:10137000209582238C938881282328839FBFDF9127
:10138000CF910895623051F49FB7F8943C91822F29
:10139000809583238C93E8812E2BEFCF8FB7F89421
:1013A000EC912E2B2C938FBFEACF3FB7F89480910E
:1013B000DC019091DD01A091DE01B091DF0126B545
:1013C000A89B05C02F3F19F00196A11DB11D3FBF7D
:1013D000BA2FA92F982F8827BC01CD01620F711D4C
:1013E000811D911D42E0660F771F881F991F4A9546
:1013F000D1F708958F929F92AF92BF92CF92DF92D2
:10140000EF92FF924B015C010E94D5096B017C01B8
:101410000E94D5096C197D098E099F09683E7340A9
:1014200081059105A8F321E0821A9108A108B1086D
:1014300088EEC80E83E0D81EE11CF11C81149104D3
:10144000A104B10429F7FF90EF90DF90CF90BF90F7
:10145000AF909F908F900895AF92BF92CF92DF92FE
:10146000EF92FF920F931F93CF93DF936C017B0159
:101470008B01040F151FEB015E01AE18BF08C017EA
:10148000D10759F06991D601ED91FC910190F0815D
:10149000E02DC6010995892B79F7C501DF91CF9120
:1014A0001F910F91FF90EF90DF90CF90BF90AF9082
:1014B0000895FC01538D448D252F30E0842F90E05A
:1014C000821B930B541710F0CF960895019708953F
:1014D000FC01918D828D981761F0A28DAE0FBF2F08
:1014E000B11D5D968C91928D9F5F9F73928F90E05E
:1014F00008958FEF9FEF0895FC01918D828D9817CD
:1015000031F0828DE80FF11D858D90E008958FEF09
:101510009FEF0895FC01918D228D892F90E0805CD2
:101520009F4F821B91098F739927089580EE91E058
:101530000E948A0A21E0892B09F420E0822F089575
:1015400080E090E0892B29F00E94960A81110C948A
:1015500000000895FC01A48DA80FB92FB11DA35A56
:10156000BF4F2C91848D90E001968F739927848FC3
:10157000A689B7892C93A089B1898C9183708064E6
:101580008C93938D848D981306C00288F389E02D87
:1015900080818F7D80830895EF92FF920F931F9338
:1015A000CF93DF93EC0181E0888F9B8D8C8D981316
:1015B0001AC0E889F989808185FF15C09FB7F89422
:1015C000EE89FF896083E889F9898081837080646E
:1015D00080839FBF81E090E0DF91CF911F910F91B9
:1015E000FF90EF900895F62E0B8D10E00F5F1F4FC8
:1015F0000F731127E02E8C8D8E110CC00FB607FCD7
:10160000FACFE889F989808185FFF5CFCE010E9464
:10161000AA0AF1CFEB8DEC0FFD2FF11DE35AFF4F1E
:10162000F0829FB7F8940B8FEA89FB8980818062F2
:10163000CFCFCF93DF93EC01888D8823B9F0AA89AF
:10164000BB89E889F9898C9185FD03C0808186FD7D
:101650000DC00FB607FCF7CF8C9185FFF2CF8081CC
:1016600085FFEDCFCE010E94AA0AE9CFDF91CF918D
:101670000895EF92FF920F931F93CF93DF937C0116
:10168000EA018A01060F171FC017D10739F4DF914D
:10169000CF911F910F91FF90EF900895FE0144911B
:1016A00050E0D7015196ED91FC9130E020E060E1EF
:1016B00070E0C70109952196E7CFAB01DC01519697
:1016C000ED91FC9130E020E06CE070E009940F9324
:1016D0001F93CF93DF938C01EB01209729F4DF91C7
:1016E000CF911F910F91089568EE73E0C8010E9499
:1016F0005D0B2197F2CFEF92FF920F931F93CF9341
:10170000C42F7C0136ECE30EF11CD7013C9134234D
:101710008C0109531F4F611122C0332329F0F801B6
:1017200030813423341315C0622F70E0DC015196F0
:10173000ED91FC9130E020E050E040E009959C2FD5
:101740009095F801808189238083D7018C91C82BE3
:10175000CC93CF911F910F91FF90EF900895332379
:1017600021F0F80130813423A1F7622F70E0DC0111
:101770005196ED91FC9130E020E041E050E0099578
:10178000F80180818C2BE0CF2FE041E00C947B0BA3
:101790007F928F929F92AF92BF92CF92DF92EF9201
:1017A000FF920F931F93CF93DF938C01EB014C01BA
:1017B00088EC880E911CFE016491E62EE2942FE0E5
:1017C000E222F62FFF707F2EEFEFEE0DEF3008F0E4
:1017D000D6C0F0E0E251F44F0C94CF1FFD0BFD0B8F
:1017E000FD0BBF0CBF0C270C3C0C530C620C700C97
:1017F000940CBF0CBF0CBF0CA60C5E018FEFA81A97
:10180000B80AD4016C9166956170C8010E94C40B3E
:10181000F12CA501B701C8010E94390BC72CD12CAE
:10182000772069F0AE0CBF1CF40160816170C801C3
:101830000E94C40BA501B601C8010E94390BFFEF3D
:10184000EF1AFF0ACE0CDF1CCC0DDD1DB4CFD40186
:101850006C916170C8010E94C40BAE014F5F5F4F75
:10186000E72CF12CB701C8010E94390BBFEFEB1A2E
:10187000FB0ACE0DDF1D9FCFF40160816695609558
:101880006170C8010E94C40BE72CF12C772039F05D
:10189000AE014F5F5F4FB701C8010E94390BFFEFE8
:1018A000EF1AFF0AE6CFFE0131966491E72DF0E0D2
:1018B000FE2FEE276E0F7F2F711DC8010E94670B50
:1018C000229679CFFE0131966491E72DF0E0FE2F4C
:1018D000EE276E0F7F2F711DC8010E945D0BF0CFA8
:1018E000FE013196F4903196E4902396D4016C91E8
:1018F0006170C8010E94C40BD8015396ED91FC9110
:10190000549702C0F595E7957A94E2F7EF21EE2916
:101910004E2F50E05196ED91FC9130E020E060E1D7
:1019200070E0C801099547CFFE013196F4903196D9
:10193000E4902396F40160816170C8010E94C40B99
:10194000D8015596ED91FC915697DBCF872D869562
:101950008695813061F020F0833069F021962BCF9D
:1019600061702DE044E0C8010E947B0BF7CF6170ED
:101970002EE042E0F8CF6370F4016083EFCFDF9197
:10198000CF911F910F91FF90EF90DF90CF90BF907C
:10199000AF909F908F907F900895CF93DF93EC014D
:1019A000A881B981A217B307ACF4EB01E881F981F2
:1019B0004E175F077CF4A417B5071CF4DC014D93A8
:1019C0005C932E173F071CF4EB013983288381E0D9
:1019D00090E002C090E080E0DF91CF910895FC019B
:1019E00025893689E25AFF4F40815181241B350BEE
:1019F00037FD0AC0349681E090E040815181241780
:101A0000350724F080E0089580E090E00895FC011F
:101A100023893489E45AFF4F40815181241B350BBF
:101A200037FD0AC0349681E090E04081518124174F
:101A3000350724F080E0089580E090E008950F934A
:101A40001F93CF93DF9300D000D0CDB7DEB78C01CA
:101A5000FC01178E168E848D958D8130910509F4C9
:101A600084C034F4892B09F440C081E090E044C084
:101A70008230910509F4AAC00397B9F7C8010E9402
:101A8000070D892BB9F1F8018589968901969C8308
:101A90008B83228D338D821B930B9A838983E25A29
:101AA000FF4F40815181349620813181240F351FB1
:101AB000BE016D5F7F4FCE0101960E94CD0C892B38
:101AC000C9F08B819C8129813A81AC01421B530B67
:101AD000F801538F428F019725893689281B390BCE
:101AE000378F268F968B858BC0CFC8010E94EF0C55
:101AF000892B59F490E080E00F900F900F900F9099
:101B0000DF91CF911F910F910895F80123893489B6
:101B10003A832983828D938D820F931F9C838B83BD
:101B2000E45AFF4F40815181349620813181240F46
:101B3000351FBE016D5F7F4FCE0101960E94CD0C17
:101B4000892BC1F229813A81F80183899489A901FD
:101B5000481B590B578F468F348B238B8B819C816D
:101B6000821B930B938F828F80CFC8010E94070D39
:101B7000892B09F4BFCFF801258936893A83298357
:101B8000828D938D820F931F9C838B83E25AFF4F2C
:101B900040815181349620813181240F351FBE014F
:101BA0006D5F7F4FCE0101960E94CD0C892B09F409
:101BB000A1CF29813A81F80185899689A901481B1D
:101BC000590B578F468F368B258BC8CFC8010E9483
:101BD000EF0C892B09F48ECFF80183899489019643
:101BE0009C838B83228D338D821B930B9A838983F5
:101BF000E45AFF4F40815181349620813181240F76
:101C0000351FBE016D5F7F4FCE0101960E94CD0C46
:101C1000892B09F46FCF8B819C8129813A81AC019A
:101C2000421B530BF801538F428F0197238934894C
:101C3000281B390B378F268F948B838B16CF0F93EE
:101C40001F93CF93DF93DC01EA011996ED91FC918C
:101C50001A97663171058CF4643171058CF46C301F
:101C6000710589F16F30710509F446C0AE01CD01EF
:101C7000DF91CF911F910F91099467317105B1F7F1
:101C80005C968D919C915D970196837099275D96E6
:101C90009C938E935C9753962D913C9154971B96F1
:101CA0008D919C911C9755964D915C915697841BF4
:101CB000950B019754969C938E93539756963C930D
:101CC0002E935597D3CF2E813F81488159810A8128
:101CD0001B811B968D919C911C97801B910B821BE5
:101CE000930B998388835B834A838C819D813D8399
:101CF0002C839F838E83BACF8A01EC01AC01455FB0
:101D00005F4F6FE070E009958B859C85F8019383A8
:101D100082838D859E859183808381E090E0DF9131
:101D2000CF911F910F910895FC01EC59FF4F208135
:101D300031812B5E3F4F6136B0F088579F4FFC01D9
:101D400080819181280F391FC9010196FC014491BE
:101D5000442371F0F9014491641761F0FC0184910E
:101D6000280F311DF1CF613478F38A579F4FE7CFA9
:101D700030E020E0C9010895213069F038F02230C8
:101D800079F0840F911D47FD9A950895860F911D56
:101D900067FD9A950895841B910947FD93950895D1
:101DA000861B910967FD93950895213069F038F0FD
:101DB000223079F0861B910967FD93950895840F71
:101DC000911D47FD9A950895860F911D67FD9A957F
:101DD0000895841B910947FD93950895DC011A9697
:101DE0004C911A97ED91FC911197249130E0042EBB
:101DF00002C0359527950A94E2F7842F860F883024
:101E000068F031961196FC93EE93E49198E0941B60
:101E100001C0EE0F9A95EAF72E2B88501A968C93F4
:101E20008FEF9FEF01C0880F6A95EAF780958223B4
:101E300008950F931F93CF93DF938C01EC01C85942
:101E4000DF4F1A866E5F7F4F79836883FC01E75806
:101E5000FF4F6081CE010E94EE0E8887F801E658A0
:101E6000FF4F6081CE010E94EE0E8987DF91CF91F6
:101E70001F910F910895CF93C62F0E94EE0EC1506F
:101E800021E030E001C0220FCA95EAF7821BCF9112
:101E900008950F931F93CF93DF938C01D0E0C0E0A0
:101EA000F80161918F01662321F186EA92E00E9498
:101EB000940E0097E1F0BC0186EA92E00E94190FAF
:101EC000609121038EE093E00E943B0F609122031A
:101ED0008EE093E00E943B0F609123038EE093E03D
:101EE0000E943B0FC80FD11D87FDDA95D9CF80E046
:101EF000F9CFCE01DF91CF911F910F910895FC0191
:101F0000E60FF11D849190E0982F88273196E49197
:101F10008E0F911D0895CF93DF9320910A03309186
:101F20000B032817390709F488C0EC0190930B03C1
:101F300080930A03FC01849180931B033196E49102
:101F4000E0931C03FE013296E491E0931D03FE0131
:101F50003396E491E0931E03FE013496E491E093FE
:101F60001F03FE013596E491E0932003FE013696AF
:101F7000E491E0932103FE013796E491E09322037C
:101F8000FE013896E491E0932303FE013996E49133
:101F9000E0932403FE013A96E491E0932503FE01C9
:101FA0003B96E491E0932603FE013C96E491E09396
:101FB0002703FE013D96E491E0932803FE013E963F
:101FC000E491E0932903FE013F96E491E0932A0314
:101FD000FE017096E491E0932B0361E1CE010E9433
:101FE0007F0F90932D0380932C0363E1CE010E9419
:101FF0007F0F90932F0380932E0380910A0390917B
:102000000B03892BD1F080912803809336034091F4
:1020100029034093370390913503992371F0913050
:1020200079F490912A03891714F4909336038091E0
:102030002B03841714F480933703DF91CF91089515
:102040003091250320912703082E000C990B622F55
:10205000022E000C770B630F711D37FD7A958617E2
:1020600097071CF4320F30933603241734F720936C
:102070003703E3CFAC014D5E5F4FDC011596ED9168
:10208000FC9165E170E00994E2EAF2E022A5238F79
:1020900023A5248F24A5258F908F878B728F618F26
:1020A000578F468F81E090E091A380A386EA92E06B
:1020B0000C943A102F923F924F925F926F927F92C0
:1020C0008F929F92AF92BF92CF92DF92EF92FF9248
:1020D0000F931F93CF93DF9300D000D0CDB7DEB71F
:1020E0004C015B015C834B8389016B018FEFC81A44
:1020F000D80A3901661A770A1A01280C391CA60178
:10210000B301C1010E94441074019FEFE91AF90A5A
:102110002801481859088B819C818A0D9B1D9A8340
:102120008983A701B2010E9444108B819C81881988
:1021300099094C01A601B3010E9444108B819C8136
:102140008A199B099C838B83A701B2010E944410CA
:10215000A601B801C1010E944410A701B8018981FC
:102160009A810E944410A601B801C4010E94441043
:10217000A701B8018B819C810F900F900F900F9059
:10218000DF91CF911F910F91FF90EF90DF90CF9053
:10219000BF90AF909F908F907F906F905F904F9087
:1021A0003F902F900C9444105F926F927F928F9289
:1021B0009F92AF92BF92CF92DF92EF92FF920F93D6
:1021C0001F93CF93DF93EC01F62E642E8C010859F8
:1021D0001F4FF8017680C780F801D084D7185F2C94
:1021E000DF1408F45D2CF80184809580E4842E2DA2
:1021F0004C2D672D828193810E94BC0E5C012E2D97
:102200004C2D672DC4010E94D50E6620D9F02EA159
:102210002F8B2FA1288F28A5298FBC8AAB8A9E8B54
:102220008D8B852D90E09B8F8A8F2E2D30E03D8FFA
:102230002C8FCE010E943A10FD1470F0FD18C3944B
:10224000712CCACFF80123852111F6CF29A52F8B38
:102250002AA5288F2BA5E0CFF70CF801F682C782BC
:10226000DF91CF911F910F91FF90EF90DF90CF9072
:10227000BF90AF909F908F907F906F905F900895E8
:10228000CF93DF93CDB7DEB728970FB6F894DEBFB4
:102290000FBECDBFDC0111964D915D916D917C918A
:1022A00014974D835E836F8378871A8219821C820C
:1022B0001B821596ED91FC91AE014F5F5F4F6CE074
:1022C00070E0099528960FB6F894DEBF0FBECDBF1B
:1022D000DF91CF910895EF92FF920F931F93CF93C9
:1022E000DF931092CC021092CD021092CE0286EAB9
:1022F00092E00E9440110091A9021091AA02E09080
:10230000A702F090A802D0E0C0E0C8018C1B9D0B92
:102310001816190674F08FEF8093CC028093CD02CB
:102320008093CE02DF91CF911F910F91FF90EF909C
:1023300008958091CC028093BD028091CD0280935C
:10234000BE028091CE028093BF021092BA02109218
:10235000B902D093BC02C093BB02F092C102E092DA
:10236000C0021092C3021092C20286EA92E00E945A
:102370003A102196CACFCF93DF93EC01AC014F5FA7
:102380005F4FED81FE816FE070E00995CE01DF9136
:10239000CF910C9440118091A6028E7F8093A6026B
:1023A0001092B0021092AF0281E090E09093C702C9
:1023B0008093C60210920B0310920A0380931903B4
:1023C00010926C0310926D0310926E0389E897E0EF
:1023D0009093AE028093AD0281E192E19093AC02C2
:1023E0008093AB021092B8021092B7020E947F074E
:1023F0000E94580786EA92E00E94BB111092740373
:102400001092730310927603109275031092770363
:10241000E8E3F3E08FEF819393E0E534F907D9F730
:1024200008956C30710551F06731710581F4DC015C
:102430001796ED91FC9167E170E00994DC01A45AD4
:10244000BF4F88E0FA0101900D928A95E1F781E093
:1024500090E00895EF92FF920F931F93CF93DF9335
:1024600000D000D0CDB7DEB76F30710509F489C058
:102470008C01603171055CF46A307105C9F16B3013
:10248000710509F477C0C8010E94111268C0643157
:10249000710509F483C065317105A9F70E941F0D0C
:1024A000892B09F46BC0D8015C968D919C91813089
:1024B000910509F49BC08230910509F4ACC069EB29
:1024C00078E0892B09F494C0F801E588F6888FE953
:1024D00090E08E199F09968B858B63E578E0C801A3
:1024E0000E94C80BD8015696FC92EE92559783C075
:1024F00084E690E09A83898382E490E09C838B83D6
:10250000D8015196ED91FC917801B7ECEB0EF11CDE
:10251000D7018C9183FF08C030E020E050E040E01C
:102520006BE070E0C8010995F7018081877F8083A7
:10253000F801EA53FF4F1082D8015196ED91FC91BA
:102540009E012F5F3F4F50E040E06AE070E0C8011D
:102550000995009721F0F7012081286020830F90D2
:102560000F900F900F90DF91CF911F910F91FF90DF
:10257000EF9008956CE478E00E94C80B81E090E051
:10258000EECF80E890E0DA0111969C938E9380EA7A
:1025900090E013969C938E931297F0CF0E94070DB4
:1025A000892B61F3C8010E94EF0C892B39F36EE28D
:1025B00078E0C8010E94C80BF80187898983808D63
:1025C0008A83818D8B830188F289E02D9E012F5FA4
:1025D0003F4F41E050E063E170E0C80109952EE013
:1025E00042E061E0C8010E947B0BC8CF68E978E057
:1025F000C8010E94C80BF80187898983808D8A836E
:10260000818D8B83428D538D0188F289E02D9E014F
:102610002F5F3F4FE0CFF801E388F4888FE790E029
:102620008E199F09948B838B67E778E0C8010E941D
:10263000C80BD8015496FC92EE925397DCCFCF93FF
:10264000DF936B307105B9F06F307105D1F06A30EE
:10265000710599F4EC016AE070E00E942A1200977B
:1026600039F067ED78E0CE010E94C80B81E090E080
:10267000DF91CF9108956BE070E0DF91CF910C94E2
:102680002A1280E890E0FA019183808380EA90E04A
:1026900093838283EBCFFC0120818681280F2083E6
:1026A0008485958542855385840F951F95878487FA
:1026B00040855185841795073CF03281230F208394
:1026C000841B950B9587848708952F923F924F9294
:1026D0005F926F927F928F929F92AF92BF92CF92B2
:1026E000DF92EF92FF920F931F93CF93DF9300D06F
:1026F0001F92CDB7DEB7FC016731710509F0DBC071
:10270000828D938D6C0121E0C21AD1082601D7FC7D
:102710002C01559447945F0186E2A80EB11C7F01FD
:102720001F01AAE22A0E311C8F0166246394712CCA
:1027300088248A94982CD50113962C9113974D9147
:102740005D01D801D3964C93D397241B330BD796B6
:102750003C932E93D697DB96DC92CE92DA97D59661
:102760007C926E92D497C901B6010E94BB1FD8011A
:10277000D9967C936E93D89737FF0BC031952195EE
:102780003109D7963C932E93D697D5969C928E92EC
:10279000D497D801D6968D919C91B6010E94BB1F0B
:1027A000D801DD969C938E93DC97DF965C924E92D7
:1027B000DE97D2964C93025F1F4F0215130509F066
:1027C000BACF6F015F01B2E3AB0EB11CCF010E9423
:1027D0001F0D892B09F46FC0D6015E96ED91FC9117
:1027E0003E2FD701D8962C91D897329F202D1124B7
:1027F000D2962C93D297DA966D917C91DB97DC96EA
:102800004D915C91E49FC001E59F900DF49F900D68
:102810001124AB0177FF02C04F5F5F4F559547957D
:10282000840F951F0E94BB1FD701D4964D915C91D8
:10283000D59757FD58C0620FD2966C93D701DF969B
:102840009C938E93DE97D2968C91D297D3969C913F
:10285000D397890FD2968C93BEE0EB0EF11C0E1528
:102860001F0509F0BECFF601848D958D813091054D
:10287000F1F182309105F1F1892B09F04CC069EB3F
:1028800078E0C6010E94C80B10E000E07601F0E499
:10289000EF0EF11C46012EE4820E911CF601828D92
:1028A000938D081719070CF447C02EE042E061E051
:1028B000C6010E947B0B81E090E00F900F900F907B
:1028C000DF91CF911F910F91FF90EF90DF90CF900C
:1028D000BF90AF909F908F907F906F905F904F9040
:1028E0003F902F900895261BD2962C93A7CF68E98E
:1028F00078E0C7CF038914898FE790E0801B910BA4
:10290000948B838B67E778E0C6010E94C80BF601C1
:10291000148B038BB9CF058916898FE990E0801B52
:10292000910B968B858B63E578E0C6010E94C80BFE
:10293000F601168B058BA8CFD601D2968C91898390
:10294000F70180818A83D4018C918B83D6015196C3
:10295000ED91FC919E012F5F3F4F41E050E063E11C
:1029600070E0C6010995C5010E944B13C7010E9482
:102970004B13C4010E944B130F5F1F4F8FCF2F9239
:102980003F924F925F926F927F928F929F92AF92FF
:10299000BF92CF92DF92EF92FF920F931F93CF934C
:1029A000DF93EC01462E3C0125ED620E711CF30114
:1029B00050807C01F3EDEF0EF11CF701A080B18097
:1029C0006C01F1EDCF0ED11CF601808091808C015D
:1029D0000C5F1F4FF1E05F1609F49FC05F1608F40B
:1029E00091C022E0521609F4A3C083E0581609F4FE
:1029F000AAC0FE01E259FF4F918280823296B182D5
:102A0000A08238965082642DC8010E94940E0097CF
:102A100009F4A4C05E01ECE6AE0EB11CBC01C80115
:102A20000E94190FFE01EB58FF4F40803A966081DB
:102A3000C5010E943B0F882EFE01E058FF4F6081C8
:102A4000C5010E943B0F982EFE01EF57FF4F60819A
:102A5000C5010E943B0F582EF50180851816F4F52C
:102A60003484940C9194232D492D682D8281938177
:102A70000E94BC0EF50193838283232D492D682D7E
:102A8000848195810E94D50EF501958384831682F9
:102A900017824E01FBE78F0E911CC458DF4FF401E3
:102AA0006081C5010E94EE0E282E6881C5010E943A
:102AB000EE0E382E40E0622DC8010E94D41041E095
:102AC000632DC8010E94D41061E0C5010E94EE0E82
:102AD0008111F0CFF501878184150CF3852D550CFC
:102AE000990BF3012081213009F457C0D0F1F60190
:102AF000223009F0F70120813181281B390B318305
:102B0000208336C0FC01E659FF4F0190F081E02D93
:102B1000C8010995A80EB91E6CCFFC01E659FF4FFC
:102B20000190F081E02DC8010995881A990A61CFBA
:102B3000FC01E659FF4F0190F081E02DC801099595
:102B4000A81AB90A56CFFE01E659FF4F0190F0814D
:102B5000E02DC8010995880E991E4BCF90E080E0CA
:102B6000C0CFF60120813181820F931F9183808332
:102B700081E090E0DF91CF911F910F91FF90EF9056
:102B8000DF90CF90BF90AF909F908F907F906F908D
:102B90005F904F903F902F900895F701E3CF8EBD47
:102BA00000000DB407FEFDCF8EB508958AE590E0D4
:102BB00090930101809300010E948C0764EF71E003
:102BC00080E090E00C94FA09089590E080E0089588
:102BD000FB0101900020E9F73197AF01461B570B2D
:102BE000DC01ED91FC910280F381E02D09948F923C
:102BF0009F92AF92BF920F931F93CF93DF93CDB766
:102C0000DEB7A1970FB6F894DEBF0FBECDBF19A2F5
:102C1000423008F44AE08E010F5D1F4F842E912C44
:102C2000B12CA12CA50194010E947E1FE62FB901B1
:102C3000CA01EA3004F5E05DD801EE938D01232B43
:102C4000242B252B79F790E080E0109729F0BD0127
:102C500080EE91E00E94E815A1960FB6F894DEBFD1
:102C60000FBECDBFDF91CF911F910F91BF90AF905D
:102C70009F908F900895E95CDFCFCF92DF92EF9223
:102C8000FF92CF93DF936B017C016DE280EE91E0C8
:102C90000E94CC0AEC0166277727CB016C197D09CD
:102CA0008E099F094AE00E94F7158C0F9D1FDF9146
:102CB000CF91FF90EF90DF90CF900895CF93DF9367
:102CC000BC0180EE91E00E94E815EC0160E271E049
:102CD00080EE91E00E94E8158C0F9D1FDF91CF914F
:102CE00008950E946B118DE599E00E948B0F109260
:102CF000CC028FEF8093CD021092CE0283E291E05E
:102D00000E94490F97FD019695958795919581951C
:102D10009109805B9F4F909374038093730388E2C3
:102D200090E0909376038093750363E271E082EA0A
:102D300092E00E94E81586E890E00E948B0F1092C6
:102D4000CC028FEF8093CD021092CE028FE291E001
:102D50000E94490F97FD01969595879591958195CC
:102D60009109805B9F4F909374038093730381E478
:102D700090E090937603809375036FE271E082EAAE
:102D800092E00E94E8158DE599E00E948B0F8FEF8D
:102D90008093CC028093CD028093CE0281E491E0B7
:102DA0000E94490F97FD019695958795919581957C
:102DB0009109805B9F4F90937403809373038AE51E
:102DC00090E0909376038093750361E471E082EA6A
:102DD00092E00C94E815CF92DF92EF92FF920F935E
:102DE0001F93CF93DF937C01EA018901FB013A979E
:102DF000EC30F10508F0B8C0E050F94E0C94CF1F4C
:102E00003217C217E617F117FC17001806180A1830
:102E10001318201826170C1783E9E80EF11C2097C9
:102E200009F4A2C0F8019081992341F0F701808153
:102E300060E0913009F061E00E944D09F801818164
:102E40000E94CF150E5F1F4F2197E9CFC20FD31FEE
:102E5000C017D10709F488C0F80181918F010E9441
:102E6000CF15F6CFFC01EE56FF4F80818F3F19F052
:102E700061E00E949909F701ED56FF4F61E0808102
:102E80000E949909F701EC56FF4F80818F3F19F09E
:102E900061E00E949909CFB7F8948091D301811124
:102EA00027C0E3E5F9E08491E5E3F9E09491E82FA8
:102EB000F0E0EE0FFF1FE35FF64FA591B491EC91A8
:102EC000E92321F461E08AE00E944D0961E08AE093
:102ED0000E9499098CB580618CBD8CB580648CBDD5
:102EE00061E08DE00E94990961E08BE00E94990900
:102EF0008091D3018F5F8093D301CFBFF8012081F0
:102F0000318150E040E060E07AEC8AE99BE30E9486
:102F10007E1FC12C62E1D62E6AE7E62EF12C80E0FE
:102F20002C153D054E055F0540F4F694E794D794C3
:102F3000C7948F5F8630A1F787E0982F906A9695A7
:102F4000809581702091D201222361F02FB7F894EF
:102F50003091D201313099F43DB33093D1013DB37A
:102F60003DBB2FBF9CBD8DBD81E090E0DF91CF9137
:102F70001F910F91FF90EF90DF90CF9008952093D5
:102F8000D101F0CF8091D201882351F09FB7F894FE
:102F90002091D2018091D1012130B1F48DBB9FBF2E
:102FA0009FB7F8948091D301882319F081508093C2
:102FB000D3018091D301811105C08CB58F7B8CBD6D
:102FC0001092D2019FBFD0CF8FBFEACF42305105C0
:102FD00058F2CC0FDD1FCC0FDD1F25972197F1F79D
:102FE000C3CFFC01EE56FF4F80816C2F8F3F09F459
:102FF000BBCF0E944D09B8CFFC01EC56FF4FF4CF78
:10300000FC01ED56FF4F642F8081F3CF842F0E9487
:10301000CF15AACF209709F4A7CFF80180810E948D
:10302000CF152197F7CF209709F49ECFF801808123
:103030000E94CF15F80181810E94CF152197F3CF0F
:10304000209709F491CFF80180810E94CF15F801F3
:1030500081810E94CF15F80182810E94CF152197AE
:10306000EFCF1F920F920FB60F9211242F933F9321
:103070008F939F93AF93BF938091D8019091D90183
:10308000A091DA01B091DB013091D70123E0230F49
:103090002D3758F50196A11DB11D2093D7018093BE
:1030A000D8019093D901A093DA01B093DB0180910C
:1030B000DC019091DD01A091DE01B091DF0101966C
:1030C000A11DB11D8093DC019093DD01A093DE0171
:1030D000B093DF01BF91AF919F918F913F912F915D
:1030E0000F900FBE0F901F90189526E8230F0296A1
:1030F000A11DB11DD2CF1F920F920FB60F921124B6
:103100002F933F934F935F936F937F938F939F93EF
:10311000AF93BF93EF93FF9380EE91E00E94AA0AD2
:10312000FF91EF91BF91AF919F918F917F916F919F
:103130005F914F913F912F910F900FBE0F901F9075
:1031400018951F920F920FB60F9211242F938F9301
:103150009F93EF93FF93E091F001F091F101808153
:10316000E091F601F091F70182FD1BC09081809102
:10317000F9018F5F8F732091FA01821741F0E0917E
:10318000F901F0E0E052FE4F958F8093F901FF9135
:10319000EF919F918F912F910F900FBE0F901F90E5
:1031A00018958081F4CF1F920F920FB60F921124C1
:1031B0002F933F934F935F936F937F938F939F933F
:1031C000AF93BF93CF93DF93EF93FF938091D001A1
:1031D000C091A102D0E087FF24C010928500109218
:1031E00084008091D0018F5F8093D0018091D001C5
:1031F000082E000C990B8C179D0724F48091D001A8
:103200008C30C4F1809184009091850004968034C4
:103210009C4908F47AC080918400909185000496BE
:1032200076C08091D001082E000C990B8C179D0759
:10323000C4F6E091D0018E2FEE0F990BFC01EE0F3A
:10324000FF1FE80FF91FE358FD4F808186FFC9CFAC
:10325000E091D0018E2FEE0F990BFC01EE0FFF1FB6
:10326000E80FF91FE358FD4F808160E08F730E94E3
:103270004D09B7CF2091840030918500E091D001B5
:103280008E2FEE0F990BFC01EE0FFF1FE80FF91FB9
:10329000E358FD4F81819281820F931F90938900A3
:1032A00080938800E091D0018E2FEE0F990BFC01E6
:1032B000EE0FFF1FE80FF91FE358FD4F808186FFD7
:1032C00011C0E091D0018E2FEE0F990BFC01EE0F93
:1032D000FF1FE80FF91FE358FD4F808161E08F73F6
:1032E0000E944D09FF91EF91DF91CF91BF91AF9176
:1032F0009F918F917F916F915F914F913F912F910E
:103300000F900FBE0F901F90189580E49CE990934A
:103310008900809388008FEF8093D001E3CFCF9214
:10332000DF92EF92FF920F931F93E82FF92F05C0C2
:10333000015011092109310961F1908196239417F7
:10334000B9F305C0015011092109310911F190812A
:1033500096239413F7CFC12CD12CE12CF12C0AC069
:103360008FEFC81AD80AE80AF80A0C151D052E05B1
:103370003F0579F080818623841791F36C2D7D2D94
:103380008E2D9F2D1F910F91FF90EF90DF90CF908A
:10339000089560E070E080E090E01F910F91FF9051
:1033A000EF90DF90CF9008951092E3011092E20128
:1033B00088EE93E0A0E0B0E08093E4019093E50113
:1033C000A093E601B093E70186E091E09093E101DC
:1033D0008093E00185EC90E09093ED018093EC0107
:1033E00084EC90E09093EF018093EE0180EC90E00C
:1033F0009093F1018093F00181EC90E09093F301C0
:103400008093F20182EC90E09093F5018093F401B7
:1034100086EC90E09093F7018093F6011092F90109
:103420001092FA011092FB011092FC018091A1020E
:103430008C3008F07BC091E0980F9093A1028093AC
:10344000780390E0FC01EE0FFF1FE80FF91FE3582F
:10345000FD4F88EB9BE0928381831092A50210922E
:10346000A40288E191E09093A3028093A2020E94BB
:10347000CB1188E191E09093A3028093A2020E9475
:10348000CB118FE193E19093700380936F0385E6F6
:1034900093E1909372038093710388E080933803E3
:1034A00089E0809339038AE080933A03E1E5F9E00B
:1034B000E491F0E0EE0FFF1FE15CF64F85919491EF
:1034C0009093460380934503E3E3F9E0E491E093AE
:1034D0005F03E2E5F9E0E491F0E0EE0FFF1FE15C4D
:1034E000F64F859194919093480380934703E4E3CA
:1034F000F9E0E491E0936003E3E5F9E0E491F0E0C2
:10350000EE0FFF1FE15CF64F8591949190934A0373
:1035100080934903E5E3F9E0E491E093610388E1F6
:1035200091E09093A3028093A20208958FEF80937D
:10353000780393CFCF93DF93CDB7DEB762970FB603
:10354000F894DEBF0FBECDBF789484B5826084BD91
:1035500084B5816084BD85B5826085BD85B5816097
:1035600085BD80916E00816080936E001092810015
:1035700080918100826080938100809181008160D0
:103580008093810080918000816080938000809191
:10359000B10084608093B1008091B000816080931D
:1035A000B00080917A00846080937A0080917A00E4
:1035B000826080937A0080917A00816080937A00A3
:1035C00080917A00806880937A001092C100809187
:1035D00071039091720340916F0350917003209199
:1035E000A6022E7F2093A6021092B0021092AF0284
:1035F00021E030E03093C7022093C60210920B0303
:1036000010920A032093190310926C0310926D0319
:1036100010926E03009711F489E897E09093AE0240
:103620008093AD025093AC024093AB028BEE96E1D7
:103630009093B8028093B7020E947F070E945807B8
:1036400086EA92E00E94BB11109219038091AF02AA
:103650009091B002009741F09093AC028093AB023E
:103660001092B0021092AF0286EA92E00E94BB1163
:1036700086EA92E00E9440118091AB029091AC02E8
:103680009093B0028093AF028FE19EE09093AC02E2
:103690008093AB0286EA92E00E94BB1186EA92E038
:1036A0000E94401161E086E00E94990960E085E097
:1036B0000E94990962E087E00E949909809178034D
:1036C0008C3008F051C061E083E00E94990980913C
:1036D0007803282F30E0F901EE0FFF1FE20FF31FF0
:1036E000E358FD4F9081907C936090831092790312
:1036F00010927A032CE0622F0E94AF1F829FB001CC
:10370000112430E020E0AB01420F531FFA01EE0F0D
:10371000FF1FE40FF51FE358FD4F908196FD16C083
:103720002F5F3F4F2C30310571F781110FC0109280
:10373000800082E0809381001092850010928400C6
:10374000B19A80916F00826080936F00E09178035E
:103750008E2F90E0FC01EE0FFF1FE80FF91FE358DA
:10376000FD4F8081806480830E94D615E091F00136
:10377000F091F10182E08083E091EC01F091ED01A4
:103780001082E091EE01F091EF0180E180831092D0
:10379000F801E091F401F091F50186E08083E09179
:1037A000F201F091F301808180618083E091F20168
:1037B000F091F301808188608083E091F201F091C3
:1037C000F301808180688083E091F201F091F30140
:1037D00080818F7D808384E591E00E945E160E9447
:1037E0007116CE0101961C0180EE91E00E948A0ABA
:1037F000892B09F4C7C180EE91E00E94680A182F56
:103800006EE671E080EE91E00E94E815612F80EE97
:1038100091E00E94CC0A60E271E080EE91E00E94AB
:10382000E815123509F4BFC25CF41C3409F4B4C2C3
:103830001D3409F4BFC28BEA91E00E945E16A2C15A
:10384000133589F01435B9F78AE991E00E945E16C4
:103850001092D6011092D5011092D4010E94D61573
:103860000E9471168FC181E891E00E945E1681E08E
:103870008093D6010E94D6150E946B111092CC0243
:1038800080E48093CD021092CE0269E6E62EF12C00
:1038900087011595079515950795A80166E770E0CE
:1038A00080E590E00E94FD0880E590E0801B910B90
:1038B00025E730E0AC0166E770E00E94F107C8013F
:1038C000805B9F4F25E730E0AC0166E770E00E9427
:1038D000F10799E6E90EF11CEDE0EE16E2E0FE06D6
:1038E000B9F61092CC021FEF1093CD021092CE02C7
:1038F00049E650E066E770E080E590E00E94FD0850
:1039000025E730E047EE5FEF66E770E087EE9FEF78
:103910000E94F10725E730E049EB50E066E770E0F0
:1039200089EB90E00E94F10726E730E040EA50E0A2
:1039300066E770E090E080E00E94F10726E730E063
:1039400040E550E06DE070E080E590E00E94F10716
:103950008DE599E00E948B0F1092CC021093CD025E
:103960001092CE0210E000E0B801012E000C880B8E
:10397000990B0E94932025E33AEF4EE85CE30E9406
:103980005E214B015C010E9456206B017C01C50148
:10399000B4010E94CB212B013C0120E030E04CED32
:1039A00052E40E945E219B01AC0160E070E08CEE6D
:1039B00092E40E94E91F0E945B206B877C878D87C1
:1039C0009E8720E030E04CED52E4C701B6010E9432
:1039D0005E2120E030E040EA52E40E94EA1F0E94AB
:1039E0005B206F87788B898B9A8B20E030E048ECE6
:1039F00052E4C301B2010E945E219B01AC0160E070
:103A000070E08CEE92E40E94E91F0E945B204B0163
:103A100020E030E048EC52E4C701B6010E945E218C
:103A200020E030E040EA52E40E94EA1F0E945B205E
:103A3000CB012B853C854F855889B4010E94F10745
:103A40001F930F9382E991E09F938F933F922F9260
:103A50000E941C22C1010E94490F5C0120E030E05D
:103A600040EF52E4C701B6010E945E2120E030E041
:103A700040EA52E40E94EA1F0E945B2095010F90E9
:103A80000F900F900F900F900F90B7FE02C02F5F16
:103A90003F4F35952795319521953109C901860FFD
:103AA000971F909374038093730320E030E040EFFE
:103AB00052E4C301B2010E945E219B01AC0160E0AF
:103AC00070E08CEE92E40E94E91F0E945B207093EC
:103AD000760360937503B10182EA92E00E94E815D3
:103AE000025E1F4F023D110509F03ECF8DE599E0C2
:103AF0000E948B0F1092CC0280E88093CD0210922E
:103B0000CE0231E4E32E3AE0F32E09E110E01F93F8
:103B10000F9387E991E09F938F933F922F920E949A
:103B20001C22C1010E94490F0F900F900F900F901F
:103B30000F900F9097FD019695958795919581959A
:103B40009109805B9F4F9093740380937303C70127
:103B500064E670E00E94BB1F81E790E0861B970B34
:103B60009093760380937503B10182EA92E00E94FC
:103B7000E815075E1F4FFFEBEF1AF5EFFF0A0D3751
:103B8000110529F68091D601882309F4F8C060E078
:103B900086E00E944D0983E090E00197F1F761E033
:103BA00086E00E944D0983E290E00197F1F760E022
:103BB00086E00E944D09E0E3F9E06491EEE4F9E06B
:103BC0008491E82FF0E0EE0FFF1FED5FF64F859137
:103BD000949100E412E42FE030E0462F0E948F1908
:103BE000611571058105910529F06F5F7F4F8F4F3A
:103BF0009F4F9F700E94932026E933E44BE05DE3E2
:103C00000E945E2120E030E040E05FE30E945E2100
:103C10000E945B206B017C876B87809100019091F3
:103C200001010AE510E08B35910514F002EC11E07A
:103C3000081B190B6BEB71E080EE91E00E94E81518
:103C4000B801012E000C880B990B17FFB8C00E9419
:103C50003D1663EC71E080EE91E00E94E8150D2CBA
:103C6000000CEE08FF08F7FEAEC0C701B6010E94C7
:103C70003D1660E271E080EE91E00E94E8156091EF
:103C8000000170910101072E000C880B990B0E9416
:103C9000932025E33AEF4EE85CE30E945E212B017E
:103CA0003C010E94562020E030E042ED52E40E94A8
:103CB0005E2120E030E040EA52E40E94EA1F0E94C8
:103CC0005B204B01C301B2010E94CB2120E030E018
:103CD00042ED52E40E945E219B01AC0160E070E085
:103CE0008CEE92E40E94E91F0E945B202B0110924F
:103CF000CC021FEF1093CD021092CE029B01A401C3
:103D000066E770E080E590E00E94F10764E170E012
:103D100080E090E00E94FA091092CC021092CD024D
:103D20001092CE029201A40166E770E080E590E077
:103D30000E94F1078B859C85843691050CF449C05F
:103D40008091D4019091D501209100013091010121
:103D5000820F931F853B910514F084EB90E097FF51
:103D600002C090E080E090930101809300010E94E6
:103D70008C076FE070E080E090E00E94FA0980E03C
:103D800090E0892B09F430CD0E94960A882309F42B
:103D90002BCD0E94000028CD8FEF9FEF9093D5018F
:103DA0008093D401EFCEE1E0F0E0F093D501E09311
:103DB000D401E8CE1092D5011092D401E3CE4AE0AE
:103DC0000E94F71546CF4AE0C701B6010E94F715D9
:103DD00050CF1093CC021092CD021092CE02C701A8
:103DE000B6010E94932023E333E343E95FE30E949B
:103DF0005E214B015C016091000170910101072E71
:103E0000000C880B990B0E94932025E33AEF4EE8B3
:103E10005CE30E945E212B013C010E9456209B0125
:103E2000AC01C501B4010E945E2120E030E040EA0F
:103E300052E40E94EA1F0E945B206B01C301B201A1
:103E40000E94CB219B01AC01C501B4010E945E21FF
:103E50009B01AC0160E070E08CEE92E40E94E91FEF
:103E60000E945B204B019B01A60162E070E090E0A4
:103E700080E00E945A109401A60162E070E081E0A7
:103E800090E00E945A109401A60161E070E082E087
:103E900090E00E945A1054CF052E97FB1EF4009418
:103EA0000E94631F57FD07D00E947E1F07FC03D0AE
:103EB0004EF40C94631F50954095309521953F4FDB
:103EC0004F4F5F4F089590958095709561957F4F06
:103ED0008F4F9F4F08950E94A01FA59F900DB49FE4
:103EE000900DA49F800D911D11240895B7FF0C948F
:103EF0006B1F0E946B1F821B930B0895A1E21A2E69
:103F0000AA1BBB1BFD010DC0AA1FBB1FEE1FFF1F7D
:103F1000A217B307E407F50720F0A21BB30BE40BCD
:103F2000F50B661F771F881F991F1A9469F7609514
:103F30007095809590959B01AC01BD01CF010895CE
:103F4000A29FB001B39FC001A39F700D811D1124DA
:103F5000911DB29F700D811D1124911D0895991B13
:103F600079E004C0991F961708F0961B881F7A9570
:103F7000C9F78095089597FB072E16F4009407D093
:103F800077FD09D00E94D51F07FC05D03EF490951F
:103F900081959F4F0895709561957F4F0895EE0F1D
:103FA000FF1F0590F491E02D0994AA1BBB1B51E162
:103FB00007C0AA1FBB1FA617B70710F0A61BB70B99
:103FC000881F991F5A95A9F780959095BC01CD013E
:103FD00008955058BB27AA270E9401200C94102155
:103FE0000E94D72038F00E94DE2020F039F49F3F55
:103FF00019F426F40C94D4200EF4E095E7FB0C940D
:10400000CE20E92F0E94352158F3BA1762077307B3
:104010008407950720F079F4A6F50C9457210EF447
:10402000E0950B2EBA2FA02D0B01B90190010C01C8
:10403000CA01A0011124FF27591B99F0593F50F4E0
:10404000503E68F11A16F040A22F232F342F442738
:10405000585FF3CF469537952795A795F040539530
:10406000C9F77EF41F16BA0B620B730B840BBAF000
:104070009150A1F0FF0FBB1F661F771F881FC2F76B
:104080000EC0BA0F621F731F841F48F4879577957F
:104090006795B795F7959E3F08F0B0CF9395880F39
:1040A00008F09927EE0F9795879508950E94E720CD
:1040B000E3950C9421210E9462206894B1110C9424
:1040C000582108950E943D2188F09F5798F0B92FFC
:1040D0009927B751B0F0E1F0660F771F881F991F3D
:1040E0001AF0BA95C9F714C0B13091F00E94572167
:1040F000B1E008950C945721672F782F8827B85F77
:1041000039F0B93FCCF3869577956795B395D9F794
:104110003EF490958095709561957F4F8F4F9F4F9E
:104120000895E89409C097FB3EF4909580957095AA
:1041300061957F4F8F4F9F4F9923A9F0F92F96E9F3
:10414000BB279395F695879577956795B795F11168
:10415000F8CFFAF4BB0F11F460FF1BC06F5F7F4F05
:104160008F4F9F4F16C0882311F096E911C0772317
:1041700021F09EE8872F762F05C0662371F096E820
:10418000862F70E060E02AF09A95660F771F881FEF
:10419000DAF7880F9695879597F9089597F99F67AD
:1041A00080E870E060E008959FEF80EC08950024BF
:1041B0000A941616170618060906089500240A948C
:1041C000121613061406050608950C94D4200E94B6
:1041D0003D21D8F3E894E0E0BB279F57F0F02AEDAB
:1041E0003FE049EC06C0EE0FBB0F661F771F881F2C
:1041F00028F0B23A62077307840728F0B25A620BBC
:10420000730B840BE3959A9572F7803830F49A9586
:10421000BB0F661F771F881FD2F790480C94D521DB
:10422000092E0394000C11F4882352F0BB0F40F4C4
:10423000BF2B11F460FF04C06F5F7F4F8F4F9F4F04
:104240000895EF93E0FF07C0A2EA2AED3FE049ECB2
:104250005FEB0E9401200E9410210F90039401FC4B
:104260009058E8E6F0E00C94E12157FD9058440F97
:10427000551F59F05F3F71F04795880F97FB991FC5
:1042800061F09F3F79F08795089512161306140682
:10429000551FF2CF4695F1DF08C01616170618060F
:1042A000991FF1CF86957105610508940895E894EA
:1042B000BB2766277727CB0197F908950E947121C4
:1042C0000C9410210E94D72038F00E94DE2020F0AC
:1042D000952311F00C94CE200C94D42011240C942E
:1042E00058210E94352170F3959FC1F3950F50E03E
:1042F000551F629FF001729FBB27F00DB11D639F98
:10430000AA27F00DB11DAA1F649F6627B00DA11D3D
:10431000661F829F2227B00DA11D621F739FB00DE3
:10432000A11D621F839FA00D611D221F749F332753
:10433000A00D611D231F849F600D211D822F762FEC
:104340006A2F11249F5750409AF0F1F088234AF0C9
:10435000EE0FFF1FBB1F661F771F881F9150504035
:10436000A9F79E3F510580F00C94CE200C94582163
:104370005F3FE4F3983ED4F3869577956795B795BC
:10438000F795E7959F5FC1F7FE2B880F911D9695D6
:10439000879597F908959F930E94E7200F9007FC57
:1043A000EE5F0C9421219F3F31F0915020F48795CE
:1043B00077956795B795880F911D9695879597F98D
:1043C00008959F938F937F936F93FF93EF939B0138
:1043D000AC010E945E21EF91FF910E94F5212F9187
:1043E0003F914F915F910C945E21DF93CF931F9388
:1043F0000F93FF92EF92DF927B018C01689406C0CD
:10440000DA2EEF010E947121FE01E894A591259119
:10441000359145915591A6F3EF010E940120FE01CF
:104420009701A801DA9469F7DF90EF90FF900F9160
:104430001F91CF91DF910895AEE0B0E0E2E2F2E2A9
:104440000C94CB240D891E8986E08C831A83098302
:104450008FEF9FE79E838D83AE01475E5F4F6F892D
:10446000788DCE0101960E943F222F813885020F60
:10447000131FF80110822E96E4E00C94E724ABE0C1
:10448000B0E0E5E4F2E20C94BD247C013B018A013A
:10449000FC0117821682838181FFC8C1CE0101967B
:1044A0005C01F7019381F30193FD859193FF819165
:1044B0003F01882309F453C1853239F493FD859176
:1044C00093FF81913F01853229F4B70190E00E946A
:1044D0002F24E7CF912C212C312CFFE1F31538F05C
:1044E0008B3211F190F4803209F1833229F137FCDB
:1044F0003CC020ED280F2A3050F536FE20C08AE05F
:10450000989E200D1124922E06C08D3291F080339A
:1045100071F7689430F8F30193FD859193FF8191D1
:104520003F018111DACF21C0689431F8689432F8E4
:10453000F2CF689433F8EFCF689434F8ECCFEAE028
:104540002E9E200D1124222E689435F8E4CF8E3251
:1045500029F436FC04C1689436F8DDCF8C3619F4A2
:10456000689437F8D8CF8836B1F2982F9F7D95544C
:104570009330E0F08336A1F18337C1F1833509F040
:1045800063C02801F2E04F0E511CF801C080D180B9
:10459000692D70E036FC02C06FEF7FEFC6010E940C
:1045A00019244C01689437F882010AC00C5F1F4F30
:1045B000FFE3F98388248394912C6501E89437F80C
:1045C00033FE2DC0522C8114910471F5552009F44D
:1045D00068CFB70180E290E00E942F245A94F6CF72
:1045E000F801808189830E5F1F4FE4CF2801F2E03C
:1045F0004F0E511CF801C080D180692D70E036FC4F
:1046000002C06FEF7FEFC6010E9424244C0182019B
:10461000D5CFB70180E290E00E942F242A9428147D
:10462000190409F0B0F7CECFF60137FC859137FEBB
:1046300081916F01B70190E00E942F2451105A948C
:10464000F1E08F1A9108BFCF843619F0893609F04E
:1046500077C0F80137FE6BC06081718182819381E0
:104660000C5F1F4FF32DFF763F2E97FF09C09095EB
:104670008095709561957F4F8F4F9F4F689437F865
:104680002AE030E0A5010E945F24C82ECA188C2CB5
:10469000432C36FE0CC0E89440F8C91440F434FEB4
:1046A00005C032FC03C0F32DFE7E4F2E892C44FE44
:1046B00095C0FE01EC0DF11D8081803309F087C0AB
:1046C000242D297E422E842D8870582E43FC95C0BF
:1046D00040FE8FC09C2C821418F42C0C922C98183D
:1046E00044FE91C0B70180E390E00E942F2442FE77
:1046F00009C088E790E041FE02C088E590E0B7017C
:104700000E942F24C91408F48AC0CA94D12C9FEFA8
:10471000C91AD90ACA0CDB1CF60182916F01B701D4
:1047200090E00E942F24AC14BD04B1F74FCF6081FC
:104730007181072E000C880B990B0E5F1F4F92CFD3
:10474000D32CE894D4F82AE030E0853739F1232DD2
:10475000297FD22E8F3601F148F48835A9F0F70170
:10476000868197812B96E2E10C94D924803749F019
:104770008837A9F7D4FE02C06894D2F820E130E06F
:104780000DC06894D4F8F6CF34FE03C0822F866043
:10479000D82E20E132E002C028E030E0F801D7FE58
:1047A0000FC060817181828193810C5F1F4FA501D1
:1047B0000E945F24C82ECA183D2CE89437F867CFB2
:1047C0006081718190E080E00E5F1F4FF0CF42FC6E
:1047D00002C0839478CF8394839475CF842D867898
:1047E00009F471CFF6CFB70180E290E00E942F2448
:1047F00083948214C0F3512C73CF522C5818821416
:1048000008F46ECFF8CF842D867809F47BCF8BE245
:1048100041FE80E247FC8DE2B70190E071CFB70125
:1048200080E390E00E942F249A946CCF8FEF9FEF4B
:1048300099CFFC010590615070400110D8F7809528
:1048400090958E0F9F1F0895FC016150704001905C
:104850000110D8F7809590958E0F9F1F08950F93A4
:104860001F93CF93DF93182F092FEB018B8181FDCD
:1048700009C01FEF0FEF812F902FDF91CF911F9174
:104880000F91089582FF14C02E813F818C819D81FC
:10489000281739073CF4E881F981CF010196998303
:1048A000888310838E819F8101969F838E83E3CFBF
:1048B000E885F985812F0995892BA1F3DACFFA01D3
:1048C000AA27283051F1203181F1E8946F936E7F4F
:1048D0006E5F7F4F8F4F9F4FAF4FB1E03ED0B4E040
:1048E0003CD0670F781F891F9A1FA11D680F791F81
:1048F0008A1F911DA11D6A0F711D811D911DA11D92
:1049000020D009F468943F912AE0269F11243019A1
:10491000305D3193DEF6CF010895462F4770405D3C
:104920004193B3E00FD0C9F7F6CF462F4F70405DEB
:104930004A3318F0495D31FD4052419302D0A9F746
:10494000EACFB4E0A6959795879577956795BA9540
:10495000C9F700976105710508959B01AC010A2E06
:1049600006945795479537952795BA95C9F7620FDD
:10497000731F841F951FA01D08952F923F924F9281
:104980005F926F927F928F929F92AF92BF92CF92DF
:10499000DF92EF92FF920F931F93CF93DF93CDB7E8
:1049A000DEB7CA1BDB0B0FB6F894DEBF0FBECDBF60
:1049B00009942A88398848885F846E847D848C8431
:1049C0009B84AA84B984C884DF80EE80FD800C813A
:1049D0001B81AA81B981CE0FD11D0FB6F894DEBF1D
:0C49E0000FBECDBFED010895F894FFCF8D
:1049EC005A0000000000CC0A2C0A590A190B8A0A3A
:1049FC00680A7C0A00000000BF142C0AE515E415B7
:104A0C000D0A0041726475696E6F20556E6F00550A
:104A1C006C747261736F6E69632053656E736F7221
:104A2C0000507265737320537461727420427574F4
:104A3C00746F6E0041726475696E6F2052616461AF
:104A4C007220696E697469616C697A65640052657B
:104A5C0063656976656420636F6D6D616E643A2081
:104A6C00005374617274696E67207363616E2E2ECD
:104A7C002E002564C2B00025640053746F707069F9
:104A8C006E67207363616E2E2E2E00556E6B6E6FEB
:104A9C00776E20636F6D6D616E6400416E676C653F
:104AAC003A20002044697374616E63653A200000FB
:00000001FF
